:10000000CFC00000F2C00000F0C00000EEC0000051
:10001000ECC00000EAC00000E8C00000E6C000003C
:10002000E4C00000E2C00000E0C00000DCC200004C
:1000300053C30000DAC00000D8C00000D6C00000E2
:10004000D4C00000D2C00000D0C00000CEC000006C
:10005000CCC000002FC20000C8C00000C6C0000015
:10006000C4C00000C2C00000C0C00000BEC000008C
:10007000BCC000005D3A2000454550524F4D5B002A
:10008000454550524F4D206572617365207375630D
:1000900065737366756C21006C6F636174696F6E54
:1000A0007300454550524F4D20657261736520467F
:1000B00061696C6564213A2000504153533A200035
:1000C000454550524F4D2065726173652E2E2E208E
:1000D0000000010000820112000200003F01430005
:1000E0000300003B01040103090421011802030974
:1000F0000409011603030904FB000C0C0331003250
:100100000033003400350000001603550053004250
:10011000002000530065007200690061006C00005F
:100120000018035400650065006E007300790064D8
:1001300000750069006E006F0000000403090409E7
:10014000024300020100C032090400000102020162
:100150000005240010010524010001042402060505
:10016000240600010705820308004009040100027B
:100170000A00000007050302200000070584022092
:1001800000001201000202000020C01683040001DA
:10019000010203010001C1020180260181267A07C4
:1001A00011241FBECFEFD2E0DEBFCDBF11E0A0E033
:1001B000B1E0E8ECFFE002C005900D92A831B10774
:1001C000D9F721E0A8E1B1E001C01D92A033B20748
:1001D000E1F711E0C0EAD1E003C02297FE01C6D6E4
:1001E000CE39D107D1F7E3D3EDC60ACF0F931F93D2
:1001F000CF93DF93EC01DFD38C01CE012DD4800FA0
:10020000911FDF91CF911F910F9108950F931F932D
:10021000CF93DF93EC01462F50E060E070E000E008
:100220002AE034D48C01CE0117D4800F911FDF91C6
:10023000CF911F910F91089540E855E260E070E082
:1002400086E291E0EFC5AF92BF92CF92DF92EF923C
:10025000FF920F93CF93DF93C0E0D0E0C12CD12C5D
:10026000760168E770E086E291E0A5D300E020E146
:10027000B701A60186E291E009D464E770E086E266
:1002800091E099D3A12CB12C60E2E0912601F0918C
:1002900027010190F081E02D86E291E00995B501FA
:1002A0006C0F7D1F89E191E0BAD0482F50E060E0EB
:1002B00070E000E020E186E291E0E8D38FE0A8164C
:1002C000B10429F08FEFA81AB80A6CE2DECF86E2FB
:1002D00091E0C2D38FEFC81AD80AE80AF80A6096EC
:1002E000C11582E0D80709F0BCCFDF91CF910F9103
:1002F000FF90EF90DF90CF90BF90AF9008950F9355
:100300001F93CF93DF931F92CDB7DEB7462F082FF1
:1003100010E0B80189E191E0498381D04981481713
:1003200049F0B80189E191E00F90DF91CF911F91E1
:100330000F9177C00F90DF91CF911F910F9108958A
:10034000FF920F931F93CF93DF93F82E00E080E08E
:100350000F15B9F0C0E0D0E010E06FEF8C2FCFDFC9
:10036000BE0189E191E05BD08F3F09F01F5F2196CC
:10037000C11582E0D80789F7812F112311F00F5F93
:10038000E7CFDF91CF911F910F91FF900895CF9309
:10039000DF9386E291E01AD4892B09F43DC0C0E0D6
:1003A00086E291E013D4892B29F086E291E047D4CC
:1003B000C82FF6CF909118019F5F9093180160ECC1
:1003C00070E086E291E012DF69EB70E086E291E096
:1003D000F2D26091180186E291E018DF81E0B0DF8F
:1003E000D82F882379F062EA70E086E291E0E3D2C8
:1003F0006D2F86E291E00ADF68E970E086E291E025
:10040000F5DE07C060E870E086E291E0D4D2C9373B
:1004100019F4DF91CF9117CFDF91CF910895CB01E0
:10042000BBC5CB01642FC0C51DBA109268001CBCAF
:1004300010BE1FBA10926E0010926F001092C90089
:1004400014B817B81AB815B818B81BB80895F894A6
:10045000E1E6F0E080E88083108283E084BD85BD22
:10046000EEE6F0E080818160808381E0809380000F
:1004700082E08093810098D078940895F89480E287
:100480009EE40197F1F781E08093E00080E28093A1
:10049000D80080E69AEE0197F1F7C6DF0C94001FB2
:1004A000FFCFF894C1DF80E69AEE0197F1F70C9444
:1004B0000000FFCF8F938FB78F9380911A018D5FCC
:1004C0008D37D0F480931A0180911B018F5F809348
:1004D0001B01D8F080911C018F4F80931C01A8F064
:1004E00080911D018F4F80931D0178F080911E0136
:1004F0008F4F80931E0109C08D5780931A01809100
:100500001B018E5F80931B0128F780911F018C5F78
:1005100080931F0158F0809120018F4F809320011C
:1005200028F0809121018F4F809321018F918FBFFF
:100530008F9118950F931F938B019C0116D0AB01DF
:10054000011511052105310569F00FD0641B750BEC
:10055000683E7340A8F3015011092109310948513F
:100560005C4FEECF1F910F9108950FB6F89466B5CA
:1005700015B270911F0180912001909121010FBE51
:1005800010FE05C06F3F19F07C5F8F4F9F4F112405
:100590000024660F001C660F001C702908958091CE
:1005A000E80080FFFCCF08958091D80087FF02C04B
:1005B00085FF18C080EA8093D80086E089BD09B421
:1005C00000FEFDCF80E88093D8001092E0001092EA
:1005D000320110923101109230011092E1008DE051
:1005E0008093E20008951F920F920FB60F9211248C
:1005F0002F933F934F935F936F937F938F939F932B
:10060000AF93BF93EF93FF938091E1001092E100CD
:1006100083FF11C01092E90091E09093EB001092DB
:10062000EC0092E29093ED0098E09093F00010922D
:1006300032011092300182FF1DC090913201992346
:10064000C9F090912501992359F09150909325017B
:10065000911106C094E09093E9009AE39093E8002A
:1006600090912401992331F091509093240191119C
:1006700001C004DF80FF0CC090E19093E200109273
:10068000320191E09093310190EA9093D80019BC27
:1006900090913101992379F084FF0DC086E089BDE6
:1006A00009B400FEFDCF80E88093D8008DE08093F0
:1006B000E20010923101FF91EF91BF91AF919F91B4
:1006C0008F917F916F915F914F913F912F910F90FB
:1006D0000FBE0F901F9018951F920F920FB60F929A
:1006E0001124EF92FF920F931F932F933F934F93F9
:1006F0005F936F937F938F939F93AF93BF93EF938A
:10070000FF93CF93DF931F92CDB7DEB71092E9002E
:100710008091E80083FF30C13091F1002091F10019
:10072000E090F100F090F1000091F1001091F100E3
:100730008091F1009091F10042EF4093E800263063
:1007400009F03FC046E0E1EDF0E0259135912E152E
:100750003F0511F0359615C02591359120173107C9
:1007600011F033960EC02591359144918F3F91053C
:1007700019F010F08FEF90E0841708F4482F5EEF27
:1007800008C0415011F7F8C0481B5093E8004423BB
:10079000A9F08091E800982F9570D9F382FDEFC001
:1007A000842F413208F080E2982F992369F3F901F0
:1007B00025912093F1009F019150F7CF803249F3AA
:1007C000DEC0253049F48EEF8093E800E8DE8E2D00
:1007D00080688093E300D3C0293001F53111A9C0AE
:1007E000E092320110923001109225018EEF809339
:1007F000E80081E0E4E9F1E08093E90095919093CD
:10080000EB00992331F095919093EC0095919093A2
:10081000ED008F5F853081F78EE1A9C0283049F463
:10082000303809F086C0BBDE809132018093F10040
:100830007CC0213291F4313A09F07BC0B0DEE0E0B7
:10084000F1E0CF01019620812093F10021E0873073
:10085000920709F46AC0FC01F4CF203209F041C0CC
:10086000313209F066C08091E80082FFFCCFE0E001
:10087000F1E0CF0101962091F1002083E1E0873083
:100880009E0711F0FC01F5CF8BEF8093E8008EEF0F
:100890008093E8008091000190910101A0910201F4
:1008A000B091030186389105A105B10521F48FE0CF
:1008B0008093240164C086399105A105B10509F032
:1008C0005EC084E08093E9009FEF8091EE0083702A
:1008D00039F09093E8008091E80082FDFCCFF5CFDD
:1008E000E0DD223229F4313221F5E092300105C0F9
:1008F000233229F4313209F03FC051DE16C02111F4
:1009000018C039834CDE3981323851F40093E90044
:100910008091EB0085FB882780F91092E90001C0E7
:1009200080E08093F1001092F1008EEF8093E80058
:1009300026C0822F8D7F8130F9F43230E9F4EF2820
:10094000D9F40F778FEF800F8630B0F48EEF80935D
:10095000E8000093E900233079F089E18093EB000F
:1009600081E090E0002E01C0880F0A94EAF780939E
:10097000EA001092EA0003C081E28093EB000F903E
:10098000DF91CF91FF91EF91BF91AF919F918F91A7
:100990007F916F915F914F913F912F911F910F9197
:1009A000FF90EF900F900FBE0F901F9018954FDDA6
:1009B00043DCEDDCFECF8F929F92AF92BF92CF923D
:1009C000DF92EF92FF920F931F93CF93DF93CDB7F8
:1009D000DEB7A0970FB6F894DEBF0FBECDBF4C01B7
:1009E0006B01CB01D0D28C01A12CB12C01151105CA
:1009F000F9F078010132110518F080E2E82EF12CAF
:100A0000A701B601CE010196B5D2CE0CDF1C0E199E
:100A10001F09D401ED91FC910280F381E02DA70123
:100A2000BE016F5F7F4FC4010995A80EB91EDECFCE
:100A3000C501A0960FB6F894DEBF0FBECDBFDF9103
:100A4000CF911F910F91FF90EF90DF90CF90BF90CB
:100A5000AF909F908F900895CF93DF9300D0CDB744
:100A6000DEB72DE029832AE02A83DC01ED91FC9199
:100A70000280F381E02D42E050E0BE016F5F7F4FC6
:100A800009950F900F90DF91CF9108954F925F924B
:100A90006F927F92AF92BF92CF92DF92EF92FF92CE
:100AA0000F931F93CF93DF93CDB7DEB7A1970FB608
:100AB000F894DEBF0FBECDBF5C016A017B0121113E
:100AC00009C0DC01ED91FC910190F081E02D642FD3
:100AD000099551C0213009F42AE0C114D104E10480
:100AE000F10421F480E389A310E226C010E2422E33
:100AF000512C612C712CC701B601A301920112D2B5
:100B0000E12FF0E06A3010F4605D01C0695C81E0C3
:100B100090E08C0F9D1FE80FF91F6083C701B6019D
:100B2000A3019201FFD169017A0121153105410527
:100B3000510511F01150DFCF002349F01150E1E0D1
:100B4000F0E0EC0FFD1FE10FF11D8DE28083612FBE
:100B500070E0D501ED91FC9141E250E0461B570B4E
:100B600081E090E08C0F9D1F680F791F0280F38158
:100B7000E02DC5010995A1960FB6F894DEBF0FBE12
:100B8000CDBFDF91CF911F910F91FF90EF90DF903C
:100B9000CF90BF90AF907F906F905F904F900895EF
:100BA000CF93DF931F92CDB7DEB76983DC01ED9160
:100BB000FC910280F381E02D41E050E0BE016F5FC7
:100BC0007F4F09950F90DF91CF9108953FB7F8942B
:100BD00020913201211102C040E010C023E0209397
:100BE000E9004091F200411109C02091E80022FF84
:100BF000F3CF25FDF1CF2BE62093E8003FBFFC01AA
:100C00002085318537FD03C04F3F09F04F5F842FAA
:100C100090E00895CF93DF93EC018885998597FF45
:100C200009C0E881F9810680F781E02DCE010995A0
:100C30009987888788859985DF91CF910895FC01F0
:100C40002085318537FD07C04FEF5FEF5187408723
:100C5000C901992708959FB7F8948091320188239C
:100C600069F083E08093E9002BE68091E80085FD40
:100C700009C082FF03C02093E800F7CF9FBF8FEF2A
:100C80009FEF08958091F1002091E80025FD03C0B9
:100C90002BE62093E8009FBF90E00895CF92DF926B
:100CA000EF92FF920F931F93CF93DF939C0180915C
:100CB0003201811104C081E0E9018A8311C00FB7BC
:100CC000F89484E08093E90080912301882369F0FF
:100CD0008091E80085FD07C00FBF81E0F9018283A4
:100CE00080E090E096C01092230180E090E0E4E084
:100CF000FE2EF0E2EF2EA1EFB0E0CAE3DC2ED3E04F
:100D0000CD2E4115510509F483C0E091E400E15F67
:100D1000F091E800F5FD18C00FBFF091E400FE135C
:100D200006C041E040932301E9014A8372C0F0917B
:100D30003201F11104C041E0F90142836AC00FB7EA
:100D4000F894F092E900E4CFE091F2001E2D1E1B12
:100D5000E12FF0E04E175F0708F4142FE12FF0E0C9
:100D60004E1B5F0B8E0F9F1FEB01E0E2E11BE03299
:100D700028F4EE0FFF27E154F94F099440C0199170
:100D80001C9319911C9319911C9319911C931991FF
:100D90001C9319911C9319911C9319911C931991EF
:100DA0001C9319911C9319911C9319911C931991DF
:100DB0001C9319911C9319911C9319911C931991CF
:100DC0001C9319911C9319911C9319911C931991BF
:100DD0001C9319911C9319911C9319911C931991AF
:100DE0001C9319911C9319911C9319911C9319919F
:100DF0001C9319911C9319911C9319911C93BE017A
:100E0000E091E800E5FFD092E800C092250179CF9B
:100E10000FBFDF91CF911F910F91FF90EF90DF9067
:100E2000CF9008952FEF3FEFFC0131872087BCDB87
:100E30000FB6F89480911B0190911C01A0911D01A7
:100E4000B0911E010FBE9C0180913201882329F0D0
:100E500068EC70E080E090E06DCB809131018823F8
:100E600009F10FB6F89480911B0190911C01A0919B
:100E70001D01B0911E010FBEAC018091310188238C
:100E800089F00FB6F89480911B0190911C01A091FC
:100E90001D01B0911E010FBE841B950B8B3F910568
:100EA00060F311C00FB6F89480911B0190911C0162
:100EB000A0911D01B0911E010FBE821B930B853CBA
:100EC000994008F4C1CF08959FB7F89480913201FA
:100ED000882321F080912501811102C09FBF0895D0
:100EE00084E08093E9008AE38093E8001092250172
:100EF000F5CFEACFE6E2F1E08AE0DF011D928A95C4
:100F0000E9F788EE93E0A0E0B0E0809329019093A8
:100F10002A01A0932B01B0932C018BE091E09183E7
:100F200080830895A1E21A2EAA1BBB1BFD010DC0F0
:100F3000AA1FBB1FEE1FFF1FA217B307E407F50789
:100F400020F0A21BB30BE40BF50B661F771F881F65
:100F5000991F1A9469F760957095809590959B01FB
:100F6000AC01BD01CF010895EE0FFF1F0590F49174
:100F7000E02D0994FB01DC0102C005900D92415067
:100F80005040D8F70895FC0105900020E9F78095BE
:100F900090958E0F9F1F0895F999FECF92BD81BD48
:100FA000F89A992780B50895262FF999FECF1FBA90
:100FB00092BD81BD20BD0FB6F894FA9AF99A0FBE82
:080FC00001960895F894FFCF9B
:100FC80000E1000000000800000000D0054E06E621
:080FD800051F060A0679070057
:00000001FF
