:100000000FC1000035C1000033C1000031C1000044
:100010002FC100002DC100002BC1000029C100002C
:1000200027C1000025C1000023C100000C94351039
:100030000C94AE101DC100001BC1000019C10000CE
:1000400017C1000015C1000013C1000011C100005C
:100050000FC100000C949C0F0BC100000C94C71240
:100060000C94EE120C94191303C1000001C100009E
:10007000FFC00000233078253032580A0023307842
:10008000253032580A005343524F4C4C45440A0025
:1000900025732052583A2027256327205B25645D6D
:1000A0002028307825303258290A000A002030787C
:1000B0002530325800454550524F4D5B3078253041
:1000C00034585D3A2000454550524F4D20566572D8
:1000D0006966792E2E2E00454550524F4D204564BD
:1000E00069742E2E2E005472616E736D6F67726983
:1000F000666F78005553422F536572205247422055
:1001000042706B2B0025346930302F384E3120255A
:1001100073005553422F5365722052474220426B61
:10012000706B00012902290429082910292029407F
:10013000298029012302230423082310232023409C
:100140002380238026402620261026042600010036
:1001500000FE011200020000BB014300030000B7D3
:100160000104010309049D01180203090485011615
:100170000303090477010C0C03310032003300340F
:1001800000350000001603550053004200200053C4
:100190000065007200690061006C000000180354E3
:1001A00000650065006E00730079006400750069E9
:1001B000006E006F000000040309040902430002FE
:1001C0000100C03209040000010202010005240000
:1001D0001001052401000104240206052406000183
:1001E0000705820308004009040100020A0000001C
:1001F0000705030220000007058402200000120109
:10020000000202000020C016830400010102030165
:100210000001C102018026018126520533132116F7
:1002200011241FBECFEFD2E0DEBFCDBF11E0A0E0B2
:10023000B1E0E4EAFFE202C005900D92A635B107F5
:10024000D9F722E0A6E5B1E001C01D92AC36B207B5
:10025000E1F712E0C0E2D2E004C02297FE010E9462
:100260002017CA31D107C9F70E944A130C94D0173E
:10027000C7CE5F926F927F928F929F92AF92BF9202
:10028000CF92DF92EF92FF920F931F93CF93DF9362
:10029000CDB7DEB728970FB6F894DEBF0FBECDBF3F
:1002A000A82EB12C96E0AA0CBB1C9A95E1F7B3944A
:1002B00000E010E0FE0131963F014E01F9E08F0EA3
:1002C000911C502E780183E0EE0CFF1C8A95E1F71B
:1002D000EA0CFB1C6301E618F708B7016C0D7D1DE5
:1002E00080EE91E00E942F0EF60181936F01E815D8
:1002F000F90599F7A301652D8CEC91E00E94F30DAF
:100300000F5F1F4F08301105E1F628960FB6F894DD
:10031000DEBF0FBECDBFDF91CF911F910F91FF9038
:10032000EF90DF90CF90BF90AF909F908F907F9095
:100330006F905F9008954F925F926F927F929F921D
:10034000AF92BF92CF92DF92EF92FF920F931F93E3
:10035000CF93DF93CDB7DEB728970FB6F894DEBF03
:100360000FBECDBF209104018FEF90E0821B910959
:10037000279A90938D0080938C00809180008860F4
:100380008093800060E170E080EE91E00E942F0E8B
:1003900040900801512C612C712C1F921F921F92CA
:1003A0008F93A12CB12C6501E12CF12C8701EA94EB
:1003B00020E030E0A901C301B2010E9439166D832B
:1003C0007E838F83988761E170E080EE91E00E94E8
:1003D0002F0E40900701512C612C712C1F921F92FF
:1003E0001F928F9320E030E0A901C301B2010E9467
:1003F00039162B013C0162E170E080EE91E00E9431
:100400002F0E90910601292F30E040E050E0298323
:100410003A834B835C831F921F921F928F9320E03D
:1004200030E0A90169817A818B819C810E94391613
:1004300069837A838B839C836D817E818F8198858C
:10044000772788279927209105011F921F921F92D5
:100450002F9320E030E0A9010E943916962EC301A7
:10046000B201772788279927209105011F921F92B3
:100470001F922F9320E030E0A9010E943916762EBA
:1004800069817A818B819C817727882799272091A0
:1004900005011F921F921F922F9320E030E0A901C7
:1004A0000E943916509A0FB6F894DEBF0FBECDBF2A
:1004B000992029F098BC84B5806284BD04C0589806
:1004C00094B59F7D94BD3D9A872D90E090938B00CD
:1004D00080938A0080918000806280938000509A8F
:1004E00070E070938900609388008091800080683C
:1004F0008093800028960FB6F894DEBF0FBECDBF64
:10050000DF91CF911F910F91FF90EF90DF90CF90EF
:10051000BF90AF909F907F906F905F904F900895A5
:100520000F931F930FB6F8940091E2011091E3012D
:100530002091E4013091E5010FBE041B150B260B41
:10054000370BFC0100831183228333831F910F91AA
:1005500008950F931F93FC010FB6F8946091E20188
:100560007091E3018091E4019091E5010FBE00815B
:10057000118122813381601B710B820B930B1F91C0
:100580000F9108950F931F930FB6F8940091E20115
:100590001091E3012091E4013091E5010FBE041BAD
:1005A000150B260B370BFC01008311832283338349
:1005B0001F910F9108954F925F926F927F928F9249
:1005C0009F92AF92BF92CF92DF92EF92FF920F93E2
:1005D0001F93CF93DF93582E462E45EBE42E40E039
:1005E000F42EC2E6D2E05DEAC52E50E0D52E5E01C3
:1005F0006BEA862E60E0962E4514F0F1052D10E092
:100600001F925F92FF92EF92DF93CF930E94771336
:10061000000F111F000F111F0F900F900F900F90E0
:100620000F900F90612C712CB301600F711F80EE41
:1006300091E00E942F0E1F928F93DF92CF92DF9353
:10064000CF930E9477138FEF681A780A0F900F905C
:100650000F900F900F900F9084E06816710421F7AF
:100660009F928F92BF92AF920E94771353940F90F4
:100670000F900F900F90C0CFDF91CF911F910F91EE
:10068000FF90EF90DF90CF90BF90AF909F908F90B2
:100690007F906F905F904F900895843008F4E9CD7B
:1006A0000895CF92DF92EF92FF9268E070E080EEC3
:1006B00091E00E942F0EC82ED12CE12CF12CFE2CA3
:1006C000ED2CDC2CCC2469E070E080EE91E00E94FF
:1006D0002F0EC82AFE2CED2CDC2CCC246AE070E016
:1006E00080EE91E00E942F0EA7019601282BCA01EF
:1006F000B901FF90EF90DF90CF90089581111BCE4C
:10070000509A589884B58F7D84BD3D9A10928B0085
:1007100010928A0080918000806280938000509ABD
:1007200010928900109288008091800080688093E8
:1007300080000895442359F090917301980F90938D
:10074000730180917201860F8093720106C08150FF
:100750008093730161506093720190917301809155
:10076000C501981738F010927301809172018F5F64
:1007700080937201909172018091C401981750F09A
:100780001092720167E070E080EE91E00E942F0EFF
:100790008093700140917201609173018CEC91E043
:1007A0000C94DF0CCF93DF93C0E0D0E28091C401C2
:1007B000C81738F54091C5018C2F90E064E170E0D6
:1007C0000E947B168C589E4F20E030E0241738F4AE
:1007D000FC01E20FF31FD0832F5F3F4FF7CF8CEC6C
:1007E00091E00E94D80C8FE39FE10197F1F700C0E0
:1007F000000040E061E081E09DDF10927001CF5F7A
:10080000D5CFDF91CF910895FF920F931F93CF9390
:10081000DF93CDB7DEB728970FB6F894DEBF0FBED3
:10082000CDBFFE013196CE010996FE2E0F2F2FEF80
:100830001FEF2193E817F907D9F71C821D824F2D6E
:10084000502F60E08CEC91E00E94F30D19831A8325
:100850001B831C821D821E821F8218864F2D502FE3
:1008600061E08CEC91E00E94F30D19821A821B82E8
:100870001C821D821E831F8318874F2D502F62E01C
:100880008CEC91E00E94F30D28960FB6F894DEBF31
:100890000FBECDBFDF91CF911F910F91FF900895B3
:1008A00080910D0190E0FC010E941E0FCF0120916C
:1008B0000C0130E0F9010E941E0F9F01E0910B0135
:1008C000F0E00E941E0F880F822B880F8E2BE09184
:1008D0000A01F0E00E941E0F880F8E2B90910901F3
:1008E000892392959F7089270895CF93C82F1F92CF
:1008F0008F932DE730E03F932F9322E632E03F9332
:100900002F930E9477131F92CF9384E790E09F93D9
:100910008F938DEE91E09F938F930E9477138DB705
:100920009EB70C960FB6F8949EBF0FBE8DBFCF91A9
:1009300008950F931F93CF93DF931F92CDB7DEB728
:100940008C01462FBC0180EE91E049830E942F0E5E
:100950004981481751F0B80180EE91E00F90DF9186
:10096000CF911F910F910C94320E0F90DF91CF9188
:100970001F910F910895CF92DF92EF92FF926B013A
:100980007C018FDE6C157D058E059F0589F0B70112
:100990008827992788E090E0CCDF99278F2D7E2D3E
:1009A0006D2D89E090E0C5DF6C2D8AE090E0C1DF1D
:1009B000B701A60182E692E00E94B915C701B6010F
:1009C000969587957795679560587B47814E9F4FA1
:1009D000A70196010E948C16CA01B9014FEF8DEE56
:1009E00091E00E94851252985A9AFF90EF90DF9002
:1009F000CF900895CF93DF93C82FD62F81E090E05A
:100A000098DF6C2F80E090E094DFC093C501D09315
:100A1000C401DF91CF910895EF92FF920F931F933E
:100A2000CF93DF931F92CDB7DEB7E82EF12C613064
:100A3000C9F050F0603129F5F701E65FFE4F808183
:100A400069830E94710E1BC08701065F1E4FD8018B
:100A50008C9169830E94600ED801EC91F0E00E94B5
:100A6000AD0E0DC08701065F1E4FF80180816983BE
:100A70000E94600ED801EC91F0E00E94A70E6981FF
:100A800007C0F701E65FFE4F80810E948A0E61E198
:100A9000C7010C960F90DF91CF911F910F91FF909E
:100AA000EF9047CFAF92CF92EF920F9306E0A02E38
:100AB00085E0C82E94E0E92E01E02EE04DE06CE0E8
:100AC0008CEC91E00E94B50D60E070E080EE91E06A
:100AD0000E942F0E8093C50161E070E080EE91E0EE
:100AE0000E942F0E8093C40140E050E0BA018AE6D4
:100AF00091E016DD40E050E0BA0186E691E010DDBD
:100B000040E050E0BA0186E591E00F91EF90CF9080
:100B1000AF9006CD0F931F93CF93DF93C2DD61306B
:100B2000724C8140910510F4BCDD04C060E875E2B0
:100B300080E090E020DF6091C401653008F062E061
:100B40008091C501853108F080E154DF279A509AE1
:100B50003D9A3E9ACCE0D0E0BE0180EE91E00E944A
:100B60002F0E682F8C2F8C5057DF2196C031D10566
:100B700099F76BE070E080EE91E00E942F0E809379
:100B800009018EDE8093CB011092C6018093C701CC
:100B90008093C8018093C9018093CA0120E04091ED
:100BA000C4016091C5018CEC91E040D780E061DB2D
:100BB000C2DB64E170E080EE91E00E942F0E813094
:100BC00009F43DC0882321F060E084E190E0B1DECB
:100BD0008CEC91E0EDD682E191E09F938F93CCEC89
:100BE000D1E0DF93CF930E94771341E060E0CE0124
:100BF000E6D657DD2EE131E03F932F9324E630E037
:100C000040E050E00E948C163F932F9385E091E0E6
:100C10009F938F93DF93CF930E9477139FEF29E6E3
:100C200088E1915020408040E1F700C000008DB77E
:100C30009EB70C960FB6F8949EBF0FBE8DBF64E0B2
:100C400070E080EE91E00E942F0E8093080165E035
:100C500070E080EE91E00E942F0E8093070166E025
:100C600070E080EE91E0FBD78093060163E070E0D6
:100C700080EE91E0F4D78093050162E070E080EEB1
:100C800091E0EDD78093040156DB60EB70E080EEDD
:100C900091E0E5D78F3F19F58CEC91E089D684EF90
:100CA00090E09F938F93CCECD1E0DF93CF930E94A1
:100CB000771341E060E0CE0182D686EE90E09F930C
:100CC0008F93DF93CF930E9477138DB79EB70896CB
:100CD0000FB6F8949EBF0FBE8DBFC0E028C08CEC4D
:100CE00091E066D6C0E08091C401C817B0F701E07A
:100CF0000C0F40E0602F81E01DDD10E0D0E060913E
:100D0000C501161790F470E0CE010E947B16BC015D
:100D100060557F4F610F711D80EE91E0A0D7682F65
:100D20008CEC91E097D71F5FEACFC02FDCCF63E157
:100D300070E080EE91E093D7C81758F49FEF21EE52
:100D400084E0915020408040E1F700C00000CF5F78
:100D5000EECF40E050E0BA018AE691E013DC40E0DB
:100D600050E0BA0186E691E00DDC10926501EAE5FB
:100D7000F1E080E081938F5F8830E1F710926201AB
:100D800010926301DF91CF911F910F910BCDEF92E4
:100D9000FF920F931F93CF93DF932091700120FF59
:100DA0005CC090E0227030E08217930709F055C0D4
:100DB0008091640182FF0EC086E890E09F938F933C
:100DC00082E692E09F938F930E9477130F900F908B
:100DD0000F900F90C0E06091C401C617C8F5EE24D3
:100DE000E394EC0E40E06E2D81E0A4DCF12CD0E029
:100DF0008E010F5F1F4F8091C501F81638F52091C5
:100E0000C40130E021503109EF2DF0E0C217D307C3
:100E100061F0C80164E170E00E947B16DC01AE0F56
:100E2000BF1FAC58BE4F2C9101C020E2CE0164E13F
:100E300070E00E947B16E80FF91FEC58FE4F2083EC
:100E4000622F8CEC91E006D7F394D5CFCE2DC3CF93
:100E500040E081E06FDC10927001DF91CF911F9133
:100E60000F91FF90EF900895CF93C82F8A3011F023
:100E70008D3079F4809171018D3011F4CA3091F187
:100E800080E2F2DF809173018111FACFC09371018A
:100E900029C0883059F441E060E08FEF4BDC80E2FC
:100EA000E3DF41E060E08FEFCF9144CC80E06FDF83
:100EB000209173018091720190E064E170E00E94E2
:100EC0007B16FC01E20FF11DEC58FE4FC0836C2F26
:100ED0008CEC91E0BFD641E060E081E02BDC82E069
:100EE000CF9155CFCF910895CF92DF92EF92FF929D
:100EF0000F931F93CF93DF93F82E682F70E0EB01D1
:100F0000C65ADE4F18817595679501E0060F40E0DF
:100F1000602F81E00FDCC0900801D0900701E090C5
:100F2000060198818091C501981738F08FEF809362
:100F300008011092070110920601103208F01FE11B
:100F4000FAD9C0920801D0920701E0920601212F40
:100F5000220F220F220F211B30E043E03595279509
:100F60004A95E1F72883EF2DEE7FF0E0E65AFE4F39
:100F7000D081C18140E0602F81E0DCDB10E0809116
:100F8000C501181798F4DD2321F0C1110CC082E0CF
:100F90000BC0CC2331F081E0C111C15065DF1F5F70
:100FA000EECF80E2FBCF80E0D150F6CFDF91CF9142
:100FB0001F910F91FF90EF90DF90CF900895CF9306
:100FC000DF9382E692E00E948D14EC018DEE91E0B9
:100FD0000E9419128C179D0734F482E692E0DF918B
:100FE000CF910C948D148DEE91E0DF91CF910C9404
:100FF0001912CF936FEF70E080EE91E030D6C82FDA
:10100000882381F0DCDF892B81F48FE99FE0019751
:10101000F1F700C000008FEF8C0FCC2309F44DC016
:10102000C82FF0CFCCDF892BE9F382E692E00E9453
:101030008D14892B31F082E692E00E94C614C82FED
:101040000EC08DEE91E00E941912892B39F08DEEC1
:1010500091E00E943712C82F81E002C0C0E080E01A
:101060009091640190FF2BC02C2F30E0C03210F41F
:1010700090E201C09C2F882319F044E251E002C0A5
:1010800049E251E03F932F933F932F931F929F93F9
:101090005F934F9320E930E03F932F9322E632E0B5
:1010A0003F932F930E9477138DB79EB70C960FB680
:1010B000F8949EBF0FBE8DBF02C080E001C08C2F90
:1010C000CF910895BF92CF92DF92EF92FF920F934C
:1010D0001F93CF93DF93CDB7DEB728970FB6F89461
:1010E000DEBF0FBECDBFB82E062F6E0189E0C80E41
:1010F000D11CFE0131967F017CDFF70181937F01D6
:10110000EC15FD05C9F7043040F0AE014F5F5F4FAD
:101110006B2D8CEC91E067D520C0F7E0FB15E8F073
:1011200010E066E0000F111F6A95E1F713958B2D13
:1011300090E073E0880F991F7A95E1F7080F191F67
:10114000CE0101967C01F70161917F01C801F1DBBD
:101150000F5F1F4FEC14FD04B1F728960FB6F894FB
:10116000DEBF0FBECDBFDF91CF911F910F91FF90DA
:10117000EF90DF90CF90BF900895CF92DF92FF92D3
:101180000F931F93CF93DF931F92CDB7DEB731DF5D
:10119000182F843509F43AC108F04AC0883409F49C
:1011A000F5C0E0F4823409F4B5C048F4803409F4A1
:1011B000AFC008F06AC1893309F46CC1AAC2853492
:1011C00009F4D1C020F4833409F4FEC1A2C28634EC
:1011D00009F4B6C0873409F401C19BC28E3409F406
:1011E000A4C1E0F48B3409F411C170F48A3409F01D
:1011F00090C28CEC91E00F90DF91CF911F910F91F5
:10120000FF90DF90CF90DBC48C3409F4F8C08D34AC
:1012100009F07FC241E060E081E0F4C0833508F06E
:1012200003C1813508F0BEC0803509F4A6C071C283
:10123000813C09F47DC170F5893509F48DC1A0F4B4
:10124000863509F495C108F480C1873509F49DC13C
:10125000883509F05EC20F90DF91CF911F910F91F9
:10126000FF90DF90CF909ECA8A3938F4883908F011
:1012700071C0813909F481C04CC2803C09F049C277
:10128000B8DE0F90DF91CF911F910F91FF90DF900B
:10129000CF9003CA843D09F400C298F4803D09F45C
:1012A000D3C120F4833C09F47DC133C2813D09F4EC
:1012B000E6C1833D09F02DC29CDE682F87E090E0F7
:1012C0008AC1863D09F490C108F4BEC18D3D09F480
:1012D000F3C18E3D09F01DC28CDEF82E27ED30E003
:1012E0003F932F9322E632E03F932F930E94771390
:1012F0006F2D8F2D60D90F2D10E0000F111F000FE3
:10130000111F0F900F900F900F90C12CD12CDBC1AB
:1013100010E096C06EDE87FF03C08F7790E005C0B7
:1013200090E06CE370E00E947B1690936F018093D5
:101330006E0140E050E0BA018AE691E023D913C083
:1013400080E00F90DF91CF911F910F91FF90DF9080
:10135000CF90D4C94EDE80930501183921F4682F4F
:1013600083E090E0E6DA0F90DF91CF911F910F912B
:10137000FF90DF90CF900C949B013BDE80930401A3
:10138000113989F7682F82E090E0ECCF40E060E00F
:1013900080E00F90DF91CF911F910F91FF90DF9030
:1013A000CF90C8C967E070E080EE91E058D4812703
:1013B00080FFAFC167E070E080EE91E050D441E083
:1013C000482767E070E080EE91E00F90DF91CF91C9
:1013D0001F910F91FF90DF90CF9044C40ADE90914F
:1013E000C501182F981708F4192F03DE9091C40136
:1013F000981708F4892F40E0682F812F03C041E03F
:1014000060E08FEF97D91092620183C18CEC91E07C
:10141000D0D38CEC91E00F90DF91CF911F910F9181
:10142000FF90DF90CF90D2C38CEC91E00F90DF91D2
:10143000CF911F910F91FF90DF90CF90CDC31F5F91
:101440008091C401181708F064C100E0C12ED12CAE
:101450004091C501041798F7202F30E0C60164E1E0
:1014600070E00E947B16FC01E20FF31FEC58FE4F68
:10147000642F70E0C6010E947B1680559F4F6081EB
:10148000820F931F56DA0F5FE3CFB3DD682F83E13E
:1014900090E0A1C0AEDD893261F198F48031D9F1DC
:1014A00038F48830E9F560E072EC81E090E025C026
:1014B000893161F18232A1F560E870E780E090E067
:1014C0001CC0833589F038F4833351F560E07BE448
:1014D00080E090E012C0873619F18F3C09F560EC8E
:1014E00072E180E090E009C060EB74E080E090E0A1
:1014F00004C060E679E080E090E00F90DF91CF914A
:101500001F910F91FF90DF90CF9035CA60E076E990
:1015100080E090E0F2CF60E071EE80E090E0EDCF0F
:1015200060E875E280E090E0E8CF63DD6FEF04C033
:1015300060DD89835EDD69810F90DF91CF911F911E
:101540000F91FF90DF90CF90BDCD53DD80930901C7
:10155000682F8BE090E0EDD9A3D98093CB010F9059
:10156000DF91CF911F910F91FF90DF90CF90BDC978
:1015700040DD8150843008F0CCC0E82FF0E0E65F19
:10158000FE4FE081F0E0E9D3C4C033DD8150843008
:1015900008F0BFC0E82FF0E0E65FFE4FE081F0E02A
:1015A000D6D3B7C026DD1FEF180F23DD143008F0A7
:1015B000B0C0682F812F0F90DF91CF911F910F91B5
:1015C000FF90DF90CF9028CA14DD823008F0A1C0D0
:1015D000682F84E190E00F90DF91CF911F910F91E0
:1015E000FF90DF90CF90A5C904DD883000F5909181
:1015F0006201911103C0898307D98981082F10E006
:1016000021E030E001C0220F8A95EAF78091630162
:10161000822B80936301EDDCF801E65AFE4F908146
:10162000981708F4808381E08093620172C0E1DC46
:1016300080916201882319F080E00E9439011092A4
:1016400062011092630165C0D4DC80930801D1DC93
:1016500080930701CEDC80930601103D09F083CE14
:101660006091080184E090E064D96091070185E011
:1016700090E05FD96091060186E090E073CEB9DC1E
:10168000182FB7DC682F812F0F90DF91CF911F911A
:101690000F91FF90DF90CF90ADC9ABDC682F80E158
:1016A00090E047D9A6DC682F81E190E042D9A1DC27
:1016B000682F82E190E056CE9CDC182F9ADC682FD0
:1016C000812F0F901DC095DC682FC601800F911FE0
:1016D00030D98FEFC81AD80AE4E0CE16D10499F7B2
:1016E00026EC30E03F932F9322E632E03F932F9396
:1016F000FED76F2D8F2D0F900F900F900F900F90A2
:10170000DF91CF911F910F91FF90DF90CF900C94BC
:10171000DB020F90DF91CF911F910F91FF90DF902F
:10172000CF9008950F931F93CF93DF9348DC892BBD
:1017300041F05FDC8E3F21F097DB1092620101C027
:101740001CDD80916E0190916F01892BF1F08AE68A
:1017500091E00E94A902683E734081059105A8F0BE
:1017600040E050E0BA018AE691E00E94C202809116
:101770006E0190916F01019790936F0180936E01BC
:10178000892B19F480E00E947E03809162018130F0
:1017900059F586E591E00E94A9026832710581053C
:1017A000910510F1109173010091720140E050E039
:1017B000BA0186E591E00E94C202C0E0D0E020912B
:1017C000630130E08C2F0C2E02C0359527950A94CA
:1017D000E2F720FD89DB2196C830D10581F740E092
:1017E000602F812F0E949A0386E691E00E94A90251
:1017F0006230710581059105D8F140E050E0BA01F1
:1018000086E691E00E94C202C091C601D0E048D8AD
:10181000C953DE4F8883E091C601F0E0E953FE4FE3
:101820008081E7ECF1E020E09191891321E091E0E3
:10183000EB3CF907C9F79091650191110DC0211199
:101840000EC09091CB01981751F08093CB014DD8E9
:1018500084E18093650103C091509093650180916C
:10186000C6018F5F8093C601843010F01092C601CC
:10187000DF91CF911F910F910895FC01858190E038
:10188000FC016BD224E02150F1F7FC0160D224E08E
:101890002150F1F7FC0161D280E991E00197F1F765
:1018A0000895CF92DF92EF92FF920F931F93CF9301
:1018B000DF937C01C0E0D0E0C62ED12C87010C0F55
:1018C0001D1FD80116968C91FBD1D8011696EC916C
:1018D000F0E0C6010C2E02C0959587950A94E2F7B8
:1018E0008170082E31D22196C430D10539F7C70155
:1018F000DF91CF911F910F91FF90EF90DF90CF90EC
:10190000BCCFCF92DF92EF92FF920F931F93CF93B2
:10191000DF937C01C0E0D0E0C62ED12C87010C0FF4
:101920001D1FD80116968C91CBD1D8011696EC913B
:10193000F0E0C6010C2E02C0959587950A94E2F757
:101940008170082E01D22196C830D10539F7C70120
:10195000DF91CF911F910F91FF90EF90DF90CF908B
:101960008CCF1F93CF93DF93EC01162FEB81F0E028
:10197000042EEAD1EC81EF3F11F0F0E0EED18E853C
:10198000612F84FF05C0CE01DF91CF911F91B9CFA8
:1019900070E084E0759567958A95E1F7CE0181DF67
:1019A000612FCE01DF91CF911F917BCF40E0D9CF46
:1019B00061E0FCDF80E49FE10197F1F70895CF93A8
:1019C000DF93CDB7DEB728970FB6F894DEBF0FBE12
:1019D000CDBF28E0E6E1F1E0DE01119601900D9225
:1019E0002A95E1F7FC012289421710F04FEF420FD0
:1019F000E42FF0E0EE0FFF1F21E030E02C0F3D1F41
:101A0000E20FF31F2081260F2068622F28960FB661
:101A1000F894DEBF0FBECDBFDF91CF91C7CFFC01E1
:101A20006785262F246027876C60C0CFCF93DF9314
:101A3000EC01423018F08E8588608E874A8B1B8AB5
:101A4000222329F0413019F48E8584608E8780E44A
:101A50009DE00197F1F7EB81F0E07FD1ED81F0E0BF
:101A60007CD1EC81EF3F11F0F0E077D16E8564FD21
:101A700019C063E0CE0115DF80E596E40197F1F728
:101A800063E0CE010EDF80E596E40197F1F763E0B5
:101A9000CE0107DF88E592E00197F1F762E0CE0121
:101AA00000DF13C06062CE0181DF80E596E401971C
:101AB000F1F76E856062CE0179DF88E592E00197EB
:101AC000F1F76E856062CE0171DF6E856062CE01D6
:101AD0006DDF84E08F87CE01A2DFCE0169DF82E077
:101AE000888B66E0CE01DF91CF9160CF6F927F92BD
:101AF0008F92AF92CF92EF920F931F93CF93DF937A
:101B0000CDB7DEB73C01162F842F5D854E853F850E
:101B10009889F301838324830583E682C782A086A4
:101B200081865287438734879587CAD0F3018481A1
:101B30008F3F09F0C5D0F3018581C2D0112319F080
:101B4000F301168603C080E1F301868720E041E0BF
:101B500060E1C301DF91CF911F910F91EF90CF9082
:101B6000AF908F907F906F9061CF8F92AF92CF9216
:101B7000EF920F93DC0112961C921297E1E3F1E0D1
:101B8000ED93FC931F921F921F921F928A2CAC2CF4
:101B9000CE2CE02E022F242F462F61E0A7DF0F90DE
:101BA0000F900F900F900F91EF90CF90AF908F907C
:101BB0000895FC0167856D7F67876860F7CEFC013B
:101BC0006785262F226027876A60F0CEFC01678533
:101BD0006E7F67876860EACEFC016785262F2160EB
:101BE00027876960E3CECF92DF92EF92FF920F9347
:101BF0001F93CF93DF9300D0CDB7DEB78C01677012
:101C0000660F660F660F606449835A83CFDE498191
:101C1000C42E5A81D52EE12CF12CD6016D916D0187
:101C2000D801ED91FC910190F081E02DC80109955A
:101C3000BFEFEB1AFB0AE8E0EE16F10471F70F9024
:101C40000F90DF91CF911F910F91FF90EF90DF9058
:101C5000CF90089541E085DE81E090E00895CB01CA
:101C60000C94AA17CB01642F0C94B2171DBA1092D2
:101C700068001CBC10BE1FBA10926E0010926F005C
:101C80001092C90014B817B81AB815B818B81BB80C
:101C90000895F894E1E6F0E080E88083108283E024
:101CA00084BD85BDEEE6F0E080818160808381E0C7
:101CB0008093800082E080938100B8D17894089569
:101CC000853170F4E3E2F1E0880FE80FF11D9591A2
:101CD000E491F0E02FB7F8948181892B81832FBFA5
:101CE00008958531B0F4E3E2F1E0880FE80FF11DCB
:101CF0009591E491F0E02FB7F89481819095892334
:101D000081838281892382838091000080930000F7
:101D10002FBF08958531B8F4E3E2F1E0880FE80FB2
:101D2000F11D9591E491F0E02FB7F8943181892F5E
:101D30008095832381838281892B82838091000017
:101D4000809300002FBF0895002039F000C0E531D6
:101D500050F4EE0FEC54F14F0994E53120F4EE0FFE
:101D6000E252F14F09940895589A52C0599A089531
:101D70005A9A08955B9A08955C9A08955D9A089519
:101D80005E9A08955F9A0895289A0895299A089569
:101D90002A9A08952B9A08952C9A08952D9A0895B9
:101DA0002E9A08952F9A44C0479A0895469A34C0AF
:101DB000459A38C0449A0895429A0895589828C080
:101DC000599808955A9808955B9808955C980895D5
:101DD0005D9808955E9808955F98089528980895ED
:101DE000299808952A9808952B9808952C98089575
:101DF0002D9808952E9808952F981AC04798089501
:101E000046980AC045980EC044980895429808958F
:101E1000E4B5EF7DE4BD0895E0918000EF77E093B5
:101E200080000895E0918000EF7DE09380000895A8
:101E3000E0918000E77FE09380000895E53130F481
:101E4000EE0FEE0FFF27E65DF04F0994EE270895A1
:101E5000E1E00895E9B1E170D9F70895E9B1E270E0
:101E6000B9F70895E9B1E47099F70895E9B1E87018
:101E700079F70895E9B1E07159F70895E9B1E07291
:101E800039F70895E9B1E07419F70895E9B1E078F8
:101E9000F9F60895E3B1E170D9F60895E3B1E2707F
:101EA000B9F60895E3B1E47099F60895E3B1E870E6
:101EB00079F60895E3B1E07159F60895E3B1E0725F
:101EC00039F60895E3B1E07419F60895E3B1E078C6
:101ED000A9F40895E6B1E07889F40895E6B1E074D4
:101EE00069F40895E6B1E07249F40895E6B1E0714D
:101EF00029F40895E6B1E47009F40895E1E0089545
:101F0000F89480E29EE40197F1F781E08093E0008D
:101F100080E28093D80080E69AEE0197F1F7A6DE82
:101F20000C94001FFFCFF894A1DE80E69AEE019793
:101F3000F1F70C940000FFCF8F938FB78F938091B0
:101F4000E1018D5F8D37D0F48093E1018091E20152
:101F50008F5F8093E201D8F08091E3018F4F8093EF
:101F6000E301A8F08091E4018F4F8093E40178F0C1
:101F70008091E5018F4F8093E50109C08D578093D3
:101F8000E1018091E2018E5F8093E20128F7809168
:101F9000E6018C5F8093E60158F08091E7018F4F56
:101FA0008093E70128F08091E8018F4F8093E8014A
:101FB0008F918FBF8F9118950F931F938B019C0169
:101FC00016D0AB01011511052105310569F00FD0BF
:101FD000641B750B683E7340A8F301501109210979
:101FE000310948515C4FEECF1F910F9108950FB604
:101FF000F89466B515B27091E6018091E701909171
:10200000E8010FBE10FE05C06F3F19F07C5F8F4FD7
:102010009F4F11240024660F001C660F001C7029BE
:1020200008958091E80080FFFCCF08958091D8004A
:1020300087FF02C085FF18C080EA8093D80086E041
:1020400089BD09B400FEFDCF80E88093D8001092CE
:10205000E00010926E0210926D0210926C021092CB
:10206000E1008DE08093E20008951F920F920FB679
:102070000F9211242F933F934F935F936F937F930E
:102080008F939F93AF93BF93EF93FF938091E10062
:102090001092E10083FF11C01092E90091E090934B
:1020A000EB001092EC0092E29093ED0098E0909398
:1020B000F00010926E0210926C0282FF1DC090918F
:1020C0006E029923C9F09091EC01992359F0915037
:1020D0009093EC01911106C094E09093E9009AE38B
:1020E0009093E8009091EB01992331F091509093F7
:1020F000EB01911101C004DF80FF0CC090E19093CF
:10210000E20010926E0291E090936D0290EA90933B
:10211000D80019BC90916D02992379F084FF0DC00D
:1021200086E089BD09B400FEFDCF80E88093D80029
:102130008DE08093E20010926D02FF91EF91BF91CC
:10214000AF919F918F917F916F915F914F913F914F
:102150002F910F900FBE0F901F9018951F920F9206
:102160000FB60F921124EF92FF920F931F932F93AC
:102170003F934F935F936F937F938F939F93AF930F
:10218000BF93EF93FF93CF93DF931F92CDB7DEB74B
:102190001092E9008091E80083FF30C13091F10096
:1021A0002091F100E090F100F090F1000091F10039
:1021B0001091F1008091F1009091F10042EF409375
:1021C000E800263009F03FC046E0EDE4F1E025915B
:1021D00035912E153F0511F0359615C02591359195
:1021E0002017310711F033960EC025913591449197
:1021F0008F3F910519F010F08FEF90E0841708F4ED
:10220000482F5EEF08C0415011F7F8C0481B5093AB
:10221000E8004423A9F08091E800982F9570D9F345
:1022200082FDEFC0842F413208F080E2982F99237D
:1022300069F3F90125912093F1009F019150F7CFA7
:10224000803249F3DEC0253049F48EEF8093E800F8
:10225000E8DE8E2D80688093E300D3C0293001F53D
:102260003111A9C0E0926E0210926C021092EC0142
:102270008EEF8093E80081E0E0E1F2E08093E900F6
:1022800095919093EB00992331F095919093EC0008
:1022900095919093ED008F5F853081F78EE1A9C015
:1022A000283049F4303809F086C0BBDE80916E02D8
:1022B0008093F1007CC0213291F4313A09F07BC067
:1022C000B0DEEEE0F1E0CF01019620812093F10035
:1022D00021E08531920709F46AC0FC01F4CF203275
:1022E00009F041C0313209F066C08091E80082FFF8
:1022F000FCCFEEE0F1E0CF0101962091F1002083C8
:10230000E1E085319E0711F0FC01F5CF8BEF809362
:10231000E8008EEF8093E80080910E0190910F010C
:10232000A0911001B091110186389105A105B10568
:1023300021F48FE08093EB0164C086399105A105FB
:10234000B10509F05EC084E08093E9009FEF8091C1
:10235000EE00837039F09093E8008091E80082FDF0
:10236000FCCFF5CFE0DD223229F4313221F5E092C5
:102370006C0205C0233229F4313209F03FC051DE2E
:1023800016C0211118C039834CDE3981323851F41E
:102390000093E9008091EB0085FB882780F910927B
:1023A000E90001C080E08093F1001092F1008EEF0F
:1023B0008093E80026C0822F8D7F8130F9F432307F
:1023C000E9F4EF28D9F40F778FEF800F8630B0F45F
:1023D0008EEF8093E8000093E900233079F089E1E3
:1023E0008093EB0081E090E0002E01C0880F0A94FA
:1023F000EAF78093EA001092EA0003C081E280933A
:10240000EB000F90DF91CF91FF91EF91BF91AF91D2
:102410009F918F917F916F915F914F913F912F91FC
:102420001F910F91FF90EF900F900FBE0F901F9094
:1024300018955091210240912002852F90E0242F81
:1024400030E0541710F4805C9F4F821B930B08956B
:1024500080912102E09120028E1731F0F0E0EE5DD4
:10246000FD4F808190E008958FEF9FEF0895909148
:10247000210280912002981779F0909120029F5FAD
:10248000903408F090E0E92FF0E0EE5DFD4F8081A0
:102490009093200290E008958FEF9FEF0895809130
:1024A000F5018111FCCF08952091C90023FD06C0DC
:1024B00021E0FC01228380E090E0089580911501E5
:1024C0008F3F21F08091F5018823D1F08091F701B1
:1024D0008F5F883208F080E09091F6019817E1F361
:1024E000E82FF0E0E850FE4F608391E09093F50113
:1024F0008093F70188EF8093C90081E090E0089510
:10250000E0911501F0E023DCE1CF0F931F93CF930F
:10251000DF931F92CDB7DEB78B01409315014F3F7C
:1025200039F0842F4983CCDB4981E42FF0E015DCBE
:1025300000FF09C0013080E1180728F482E0809391
:10254000C800C80105C01092C800C80196958795BB
:1025500001979093CD008093CC008091C90083FDBA
:1025600010C010922102109220021092F7011092D6
:10257000F6011092F50186E08093CA0088ED809301
:10258000C9000F90DF91CF911F910F9108951F9275
:102590000F920FB60F9211242F938F939F93EF9367
:1025A000FF939091CE00809121028F5F803408F0DC
:1025B00080E020912002821739F0E82FF0E0EE5DF4
:1025C000FD4F908380932102FF91EF919F918F9116
:1025D0002F910F900FBE0F901F9018951F920F9282
:1025E0000FB60F9211248F939F93EF93FF939091C7
:1025F000F7018091F601981304C088ED8093C9001B
:102600000FC08091F6018F5F883208F080E0E82FDC
:10261000F0E0E850FE4F90819093CE008093F60159
:10262000FF91EF919F918F910F900FBE0F901F9090
:1026300018951F920F920FB60F9211248F93EF935C
:10264000FF931092F501809115018F3F21F0E091E9
:102650001501F0E082DBFF91EF918F910F900FBE9B
:102660000F901F9018951092EF0188EE93E0A0E074
:10267000B0E08093F0019093F101A093F201B09348
:10268000F3011092F40189E391E09093EE018093BD
:10269000ED010895FEDA0E948A0544D8FECFCF925C
:1026A000DF92EF92FF920F931F93CF93DF936C0112
:1026B0007A01EB01E60EF71E00E010E0CE15DF0513
:1026C00061F06991D601ED91FC910190F081E02DCE
:1026D000C6010995080F191FF1CFC801DF91CF91ED
:1026E0001F910F91FF90EF90DF90CF9008954F9240
:1026F0005F926F927F928F929F92AF92BF92CF9292
:10270000DF92EF92FF920F931F93CF93DF93CDB79A
:10271000DEB72B970FB6F894DEBF0FBECDBFAE8CE1
:10272000BF8CE8A1F9A17E0182E2E80EF11C512CD8
:102730004AE0442E8E010F5F1F4F6F019FEFC91AB1
:10274000D90AE491EE2399F1D801F42D1D92FA955E
:10275000E9F7E53271F430E2732E612C812C912C73
:10276000BFEFCB1ADB0AF6013197E491E11138C0D3
:1027700002C0E983612CF80101900020E9F7AF0164
:1027800041505109401B510B540ED501ED91FC9164
:102790000280F381E02DB801C50109958FEF860D08
:1027A000B1E0B61510F4682EE6CFF601C6CF852D40
:1027B00090E02B960FB6F894DEBF0FBECDBFDF9131
:1027C000CF911F910F91FF90EF90DF90CF90BF902E
:1027D000AF909F908F907F906F905F904F900895F3
:1027E000E03329F4C70120E3722E7C01B9CFE13335
:1027F00008F075C0E33229F4D7016C90C701029646
:10280000F4CFE53211F4E983B6CFE062C701029656
:10281000E33731F0E837B9F1E33681F12AE034C02B
:10282000F7017C0160817181662061F0FB010190FC
:102830000020E9F73197E61BF70B862D90E0E817AB
:10284000F90738F4FB0101900020E9F731976E2E6B
:10285000661A560CD501ED91FC91712C0280F38122
:10286000E02DA301C5010995A401461957091416C5
:1028700015060CF07FCF60E270E02EC0F7017C01FE
:102880008081898378CF20E1F7017C01422F50E0DD
:10289000B801808191812B8730D32B85203111F4B1
:1028A000C80121D3F80101900020E9F73197E01B1E
:1028B000F10B8E1A9F0A181419040CF05BCFAF01AC
:1028C0004F5F5F4FB801C801880D991DF4D2672D85
:1028D000772767FD7095A401C801FED24BCFEA337C
:1028E00008F093CFEF708E2E912CC7017ECFCF933F
:1028F000DF931F92CDB7DEB76983DC01ED91FC91C8
:102900000280F381E02D41E050E0BE016F5F7F4F18
:1029100009950F90DF91CF9108953FB7F8942091DA
:102920006E02211102C040E010C023E02093E900B4
:102930004091F200411109C02091E80022FFF3CF3D
:1029400025FDF1CF2BE62093E8003FBFFC01208559
:10295000318537FD03C04F3F09F04F5F842F90E072
:102960000895CF93DF93EC018885998597FF09C07F
:10297000E881F9810680F781E02DCE0109959987DC
:10298000888788859985DF91CF910895FC012085FE
:10299000318537FD07C04FEF5FEF51874087C90191
:1029A000992708959FB7F89480916E02882369F063
:1029B00083E08093E9002BE68091E80085FD09C063
:1029C00082FF03C02093E800F7CF9FBF8FEF9FEFF8
:1029D00008958091F1002091E80025FD03C02BE6C9
:1029E0002093E8009FBF90E00895CF92DF92EF928E
:1029F000FF920F931F93CF93DF939C0180916E0200
:102A0000811104C081E0E9018A8311C00FB7F894F5
:102A100084E08093E9008091EA01882369F0809145
:102A2000E80085FD07C00FBF81E0F901828380E0E7
:102A300090E096C01092EA0180E090E0E4E0FE2E83
:102A4000F0E2EF2EA1EFB0E0CAE3DC2ED3E0CD2E12
:102A50004115510509F483C0E091E400E15FF09174
:102A6000E800F5FD18C00FBFF091E400FE1306C0AA
:102A700041E04093EA01E9014A8372C0F0916E029D
:102A8000F11104C041E0F90142836AC00FB7F89424
:102A9000F092E900E4CFE091F2001E2D1E1BE12F21
:102AA000F0E04E175F0708F4142FE12FF0E04E1B03
:102AB0005F0B8E0F9F1FEB01E0E2E11BE03228F479
:102AC000EE0FFF27EA59FA4E099440C019911C9362
:102AD00019911C9319911C9319911C9319911C9392
:102AE00019911C9319911C9319911C9319911C9382
:102AF00019911C9319911C9319911C9319911C9372
:102B000019911C9319911C9319911C9319911C9361
:102B100019911C9319911C9319911C9319911C9351
:102B200019911C9319911C9319911C9319911C9341
:102B300019911C9319911C9319911C9319911C9331
:102B400019911C9319911C9319911C93BE01E0914A
:102B5000E800E5FFD092E800C092EC0179CF0FBF0A
:102B6000DF91CF911F910F91FF90EF90DF90CF9069
:102B700008952FEF3FEFFC013187208757DA0FB61A
:102B8000F8948091E2019091E301A091E401B09169
:102B9000E5010FBE9C0180916E02882329F068EC4C
:102BA00070E080E090E008CA80916D02882309F10E
:102BB0000FB6F8948091E2019091E301A091E401B5
:102BC000B091E5010FBEAC0180916D02882389F0C0
:102BD0000FB6F8948091E2019091E301A091E40195
:102BE000B091E5010FBE841B950B8B3F910560F3FF
:102BF00011C00FB6F8948091E2019091E301A09189
:102C0000E401B091E5010FBE821B930B853C994016
:102C100008F4C1CF08959FB7F89480916E0288237D
:102C200021F08091EC01811102C09FBF089584E0E2
:102C30008093E9008AE38093E8001092EC01F5CFDD
:102C4000EACFE2E6F2E08AE0DF011D928A95E9F739
:102C500088EE93E0A0E0B0E0809365029093660276
:102C6000A0936702B093680289E491E09183808326
:102C700008954F925F926F927F92AF92BF92CF92E0
:102C8000DF92EF92FF920F931F93CF93DF93CDB715
:102C9000DEB729013A0129893A894B895C8964198F
:102CA0007509860997092A193B094C095D0972D0F3
:102CB000A32FF42FE52FE418F50806091709622F52
:102CC0007A2F8F2F9E2FA801970148D02A0D3B1DE8
:102CD0004C1D5D1DCA01B901DF91CF911F910F916C
:102CE000FF90EF90DF90CF90BF90AF907F906F906C
:102CF0005F904F9008950024552704C0080E591F77
:102D0000880F991F009729F076956795B8F371059C
:102D1000B9F7802D952F0895A1E21A2EAA1BBB1B8F
:102D2000FD010DC0AA1FBB1FEE1FFF1FA217B30797
:102D3000E407F50720F0A21BB30BE40BF50B661FAD
:102D4000771F881F991F1A9469F760957095809571
:102D500090959B01AC01BD01CF010895052E97FB15
:102D600016F400940FD057FD05D0D6DF07FC02D033
:102D700046F408C050954095309521953F4F4F4FF0
:102D80005F4F089590958095709561957F4F8F4F17
:102D90009F4F089568940013E894A0E0B0E0E2ED3E
:102DA000F6E11DC0EFEFE7F959016A015E23550F07
:102DB000EE08FE2C87019B01AC019E23990F660B48
:102DC000762FCB0141D0CDB7DEB7EAE024C02F92F9
:102DD0003F924F925F926F927F928F929F92AF92AB
:102DE000BF92CF92DF92EF92FF920F931F93CF93F8
:102DF000DF93CDB7DEB7CA1BDB0B0FB6F894DEBF8F
:102E00000FBECDBF09942A88398848885F846E84B4
:102E10007D848C849B84AA84B984C884DF80EE80FE
:102E2000FD800C811B81AA81B981CE0FD11D0FB607
:102E3000F894DEBF0FBECDBFED010895EE0FFF1F6A
:102E40000590F491E02D0994DF93CF939F92A0E435
:102E50009A2E0024D001E001F00116950795F79411
:102E6000E794D794C794B794A79448F41068A20F36
:102E7000B31FC41FD51FE61FF71F081E191E220F00
:102E8000331F441F551F661F771F881F991F9A9471
:102E900021F79D01AE01BF01C00111249F90CF9188
:102EA000DF910895FB01DC0102C001900D924150B9
:102EB0005040D8F708956817790768F4FB01DC01E2
:102EC000E40FF51FA40FB51F02C002900E924150EF
:102ED0005040D8F70895E6CFDC0101C06D93415012
:102EE0005040E0F70895DC016C9161566A3108F0BA
:102EF000605E6F5B6D93C1F708954532510518F41C
:102F0000423008F004C0FB011082CB010895BB27BA
:102F10004A3031F4992322F4BDE2909581959F4F78
:102F200001C0BB27FB015527AA27880F991FAA1F9D
:102F3000A41710F0A41B83955051B9F7A05DAA33D4
:102F400008F0A95DA193009779F7B111B19311929F
:102F5000CB0116C0F999FECF92BD81BDF89A992791
:102F600080B50895262FF999FECF1FBA92BD81BD75
:102F700020BD0FB6F894FA9AF99A0FBE01960895FB
:102F8000DC01FC01672F71917723E1F7329704C0D0
:102F90007C916D9370836291AE17BF07C8F308955B
:042FA000F894FFCFD3
:102FA40001000000C0FFFFFFFFFF0814131000E141
:102FB4000000000008FF00004000140054002B3102
:102FC4003747310055415254005553420000000028
:102FD400002A0E4F130000000054124F1319123729
:102FE4001228124F12000000007714F5148D14C635
:062FF40014B114201600C8
:00000001FF
