:1000000024C100004AC1000048C1000046C10000F0
:1000100044C1000042C1000040C100003EC10000D8
:100020003CC100003AC1000038C100000C94340FFC
:100030000C94AD0F32C1000030C100002EC1000091
:100040002CC100002AC1000028C1000026C1000008
:1000500024C100000C949B0E20C100000C94C6111A
:100060000C94ED110C94181218C1000016C1000078
:1000700014C10000233078253032580A002330782C
:10008000253032580A00202076583A25692C2076EF
:10009000593A25692C20765363726F6C6C3A256946
:1000A0000A002523630A007C2523737C0A0025238C
:1000B000630A005343524F4C4C45440A00257320B9
:1000C00052583A2027256327205B25645D2028307D
:1000D0007825303258290A000A002030782530323D
:1000E0005800454550524F4D5B3078253034585DAF
:1000F0003A2000454550524F4D2056657269667949
:100100002E2E2E00454550524F4D20456469742EC9
:100110002E2E0043616E796F6E43617361005553FB
:10012000422F536572205247422042706B2B0025AC
:10013000346930302F384E31202573005553422F0B
:100140005365722052474220426B706B00012902B6
:10015000290429082910292029402980290123025E
:1001600023042308231023202340238023802640B8
:100170002620261026042600010000280212000274
:100180000000E5014300030000E10104010309044C
:10019000C7011802030904AF011603030904A101F2
:1001A0000C0C03310032003300340035000000161F
:1001B000035500530042002000530065007200699F
:1001C0000061006C00000018035400650065006EBB
:1001D00000730079006400750069006E006F000014
:1001E000000403090409024300020100C0320904AB
:1001F0000000010202010005240010010524010095
:1002000001042402060524060001070582030800F4
:100210004009040100020A00000007050302200053
:1002200000070584022000001201000202000020E5
:10023000C01683040001010203010001C102018014
:100240002601812665053212201511241FBECFEF2D
:10025000D2E0DEBFCDBF11E0A0E0B1E0E2EAFDE216
:1002600002C005900D92A635B107D9F722E0A6E5A8
:10027000B1E001C01D92A435B207E1F712E0CAE473
:10028000D2E004C02297FE010E941F16C434D10799
:10029000C9F70E9449120C94CF16B2CE5F926F92AA
:1002A0007F928F929F92AF92BF92CF92DF92EF9206
:1002B000FF920F931F93CF93DF93CDB7DEB72897AD
:1002C0000FB6F894DEBF0FBECDBFA82EB12C96E0BE
:1002D000AA0CBB1C9A95E1F7B39400E010E0FE0174
:1002E00031963F014E01F9E08F0E911C502E78019E
:1002F00083E0EE0CFF1C8A95E1F7EA0CFB1C63011E
:10030000E618F708B7016C0D7D1D88EC91E00E949E
:100310002E0DF60181936F01E815F90599F7A301F8
:10032000652D84EB91E00E94F20C0F5F1F4F0830A7
:100330001105E1F628960FB6F894DEBF0FBECDBFCB
:10034000DF91CF911F910F91FF90EF90DF90CF90B1
:10035000BF90AF909F908F907F906F905F90089527
:100360004F925F926F927F929F92AF92BF92CF9285
:10037000DF92EF92FF920F931F93CF93DF93CDB74E
:10038000DEB728970FB6F894DEBF0FBECDBF209121
:1003900004018FEF90E0821B9109279A90938D00C2
:1003A00080938C008091800088608093800060E161
:1003B00070E088EC91E00E942E0D40900801512CD5
:1003C000612C712C1F921F921F928F93A12CB12C24
:1003D0006501E12CF12C8701EA9420E030E0A901CD
:1003E000C301B2010E9438156D837E838F83988785
:1003F00061E170E088EC91E00E942E0D40900701D1
:10040000512C612C712C1F921F921F928F9320E010
:1004100030E0A901C301B2010E9438152B013C0153
:1004200062E170E088EC91E00E942E0D909106014F
:10043000292F30E040E050E029833A834B835C83EE
:100440001F921F921F928F9320E030E0A9016981D3
:100450007A818B819C810E94381569837A838B8392
:100460009C836D817E818F81988577278827992746
:10047000209105011F921F921F922F9320E030E0E0
:10048000A9010E943815962EC301B201772788274B
:100490009927209105011F921F921F922F9320E010
:1004A00030E0A9010E943815762E69817A818B810E
:1004B0009C81772788279927209105011F921F92F9
:1004C0001F922F9320E030E0A9010E943815509A26
:1004D0000FB6F894DEBF0FBECDBF992029F098BCAF
:1004E00084B5806284BD04C0589894B59F7D94BD46
:1004F0003D9A872D90E090938B0080938A008091A5
:100500008000806280938000509A70E07093890030
:100510006093880080918000806880938000289696
:100520000FB6F894DEBF0FBECDBFDF91CF911F9104
:100530000F91FF90EF90DF90CF90BF90AF909F9082
:100540007F906F905F904F900895FF920F931F934D
:10055000CF93DF931F928DE28F938091B20190E051
:1005600002969F938F938EEA90E09F938F938AE4F5
:1005700092E09F938F930E9476128DB79EB7089654
:100580000FB6F8949EBF0FBE8DBFF12CC7EAD0E026
:100590000AE412E08091B1012091B201F816E0F472
:1005A0008F2D90E064E170E00E947A158F599E4F84
:1005B0009F938F931F922F93DF93CF931F930F934C
:1005C0000E947612F3948DB79EB708960FB6F894F2
:1005D0009EBF0FBE8DBFDECF1F928DE28F93822F05
:1005E00090E002969F938F9382EA90E09F938F937F
:1005F000CAE4D2E0DF93CF930E94761280915D012E
:100600001F928F9380915F011F928F938091600161
:100610001F928F9386E890E09F938F93DF93CF9301
:100620000E9476128DB79EB742960FB6F8949EBF81
:100630000FBE8DBFDF91CF911F910F91FF90089555
:100640000F931F930FB6F8940091CA011091CB013C
:100650002091CC013091CD010FBE041B150B260B50
:10066000370BFC0100831183228333831F910F9189
:1006700008954F925F926F927F928F929F92AF9266
:10068000BF92CF92DF92EF92FF920F931F93CF937F
:10069000DF93582E462E42EEE42E40E0F42ECAE4BC
:1006A000D2E05AEDC52E50E0D52E5E0168ED862EC3
:1006B00060E0962E4514F0F1052D10E01F925F9238
:1006C000FF92EF92DF93CF930E947612000F111FDB
:1006D000000F111F0F900F900F900F900F900F9021
:1006E000612C712CB301600F711F88EC91E00E94A6
:1006F0002E0D1F928F93DF92CF92DF93CF930E94A4
:1007000076128FEF681A780A0F900F900F900F9063
:100710000F900F9084E06816710421F79F928F92DA
:10072000BF92AF920E94761253940F900F900F9049
:100730000F90C0CFDF91CF911F910F91FF90EF905D
:10074000DF90CF90BF90AF909F908F907F906F90F1
:100750005F904F900895843008F4A0CD0895CF9213
:10076000DF92EF92FF9268E070E088EC91E00E94E7
:100770002E0DC82ED12CE12CF12CFE2CED2CDC2CD6
:10078000CC2469E070E088EC91E00E942E0DC82A2C
:10079000FE2CED2CDC2CCC246AE070E088EC91E09F
:1007A0000E942E0DA7019601282BCA01B901FF90C6
:1007B000EF90DF90CF9008958111D2CD509A589844
:1007C00084B58F7D84BD3D9A10928B0010928A0073
:1007D00080918000806280938000509A10928900FE
:1007E0001092880080918000806880938000089536
:1007F000442359F090916001980F9093600180918B
:100800005F01860F80935F0106C081508093600175
:10081000615060935F01909160018091B2019817DF
:1008200038F01092600180915F018F5F80935F01CB
:1008300090915F018091B101981750F010925F0183
:1008400067E070E088EC91E00E942E0D80935D01DE
:1008500040915F016091600184EB91E0AFC7CF935D
:10086000DF93C0E0D0E28091B101C81730F540912C
:10087000B2018C2F90E064E170E00E947A158F59EC
:100880009E4F20E030E0241738F4FC01E20FF31F04
:10089000D0832F5F3F4FF7CF84EB91E088D78FE372
:1008A0009FE10197F1F700C0000040E061E081E0C6
:1008B0009FDF10925D01CF5FD6CFDF91CF9108957A
:1008C000811143CE089580910D0190E0FC010E94BA
:1008D0001D0ECF0120910C0130E0F9010E941D0E88
:1008E0009F01E0910B01F0E00E941D0E880F822B0A
:1008F000880F8E2BE0910A01F0E00E941D0E880FF8
:100900008E2B90910901892392959F7089270895D4
:10091000CF93C82F1F928F932DE730E03F932F93F3
:100920002AE432E03F932F930E9476121F92CF93D6
:1009300084E790E09F938F9385ED91E09F938F9351
:100940000E9476128DB79EB70C960FB6F8949EBF94
:100950000FBE8DBFCF9108950F931F93CF93DF9359
:100960001F92CDB7DEB78C01462FBC0188EC91E019
:1009700049830E942E0D4981481751F0B80188EC37
:1009800091E00F90DF91CF911F910F910C94310D59
:100990000F90DF91CF911F910F910895CF92DF9229
:1009A000EF92FF926B017C01DADE6C157D058E05FE
:1009B0009F0589F0B7018827992788E090E0CCDF70
:1009C00099278F2D7E2D6D2D89E090E0C5DF6C2D50
:1009D0008AE090E0C1DFB701A6018AE492E00E94BC
:1009E000B814C701B60196958795779567956058B5
:1009F0007B47814E9F4FA70196010E948B15CA012C
:100A0000B9014FEF85ED91E00E94841152985A9AF6
:100A1000FF90EF90DF90CF900895CF93DF93C82F92
:100A2000D62F81E090E098DF6C2F80E090E094DF9B
:100A3000C093B201D093B101DF91CF910895EF92AD
:100A4000FF920F931F93CF93DF931F92CDB7DEB723
:100A5000E82EF12C6130C9F050F0603129F5F70132
:100A6000E65FFE4F808169830E94700D1BC0870185
:100A7000065F1E4FD8018C9169830E945F0DD801DB
:100A8000EC91F0E00E94AC0D0DC08701065F1E4F97
:100A9000F801808169830E945F0DD801EC91F0E03C
:100AA0000E94A60D698107C0F701E65FFE4F8081B5
:100AB0000E94890D61E1C7010C960F90DF91CF91E3
:100AC0001F910F91FF90EF9047CFAF92CF92EF928F
:100AD0000F9306E0A02E85E0C82E94E0E92E01E0F9
:100AE0002EE04DE06CE084EB91E03ED760E070E0FA
:100AF00088EC91E0B3D78093B20161E070E088ECBC
:100B000091E0ACD78093B1010FB6F8948091CA01FF
:100B10009091CB01A091CC01B091CD010FBE8093FB
:100B2000570190935801A0935901B0935A010F9126
:100B3000EF90CF90AF9008950F931F93CF93DF93D3
:100B40000EDE6130724C8140910510F408DE04C065
:100B500060E875E280E090E021DF6091B1016530EE
:100B600008F062E08091B201853108F080E155DF44
:100B7000279A509A3D9A3E9ACCE0D0E0BE0188EC8C
:100B800091E06CD7682F8C2F8C5059DF2196C031A3
:100B9000D105A1F76BE070E088EC91E05FD780931E
:100BA000090191DE8093B30120E04091B101609191
:100BB000B20184EB91E039D680E070DBD1DB64E1F7
:100BC00070E088EC91E04AD7813009F43DC0882379
:100BD00021F060E084E190E0BFDE84EB91E0E7D5B6
:100BE0008CE391E09F938F93C4EBD1E0DF93CF939D
:100BF0000E94761241E060E0CE01E0D5B0DD2EE14A
:100C000031E03F932F9324E630E040E050E00E9433
:100C10008B153F932F938FE291E09F938F93DF93F8
:100C2000CF930E9476129FEF29E688E191502040F1
:100C30008040E1F700C000008DB79EB70C960FB65C
:100C4000F8949EBF0FBE8DBF64E070E088EC91E029
:100C500005D78093080165E070E088EC91E0FED64E
:100C60008093070166E070E088EC91E0F7D680930E
:100C7000060163E070E088EC91E0F0D68093050116
:100C800062E070E088EC91E0E9D68093040168DBD3
:100C900060EB70E088EC91E0E1D68F3F19F584EBD2
:100CA00091E085D58EE191E09F938F93C4EBD1E0E5
:100CB000DF93CF930E94761241E060E0CE017ED5B3
:100CC00083E191E09F938F93DF93CF930E947612FD
:100CD0008DB79EB708960FB6F8949EBF0FBE8DBF16
:100CE000C0E028C084EB91E062D5C0E08091B10102
:100CF000C817B0F701E00C0F40E0602F81E078DD0D
:100D000010E0D0E06091B201161790F470E0CE01CF
:100D10000E947A15BC0160557F4F610F711D88ECF0
:100D200091E09CD6682F84EB91E093D61F5FEACFC9
:100D3000C02FDCCF63E170E088EC91E08FD6C8175C
:100D400058F49FEF21EE84E0915020408040E1F77D
:100D500000C00000CF5FEECFDF91CF911F910F91C8
:100D60007ECDEF92FF920F931F93CF93DF9320914D
:100D70005D0120FF5CC090E0227030E08217930795
:100D800009F055C08091560182FF0EC083EB90E0C0
:100D90009F938F938AE492E09F938F930E947612A1
:100DA0000F900F900F900F90C0E06091B101C617A7
:100DB000C8F5EE24E394EC0E40E06E2D81E018DDE2
:100DC000F12CD0E08E010F5F1F4F8091B201F81619
:100DD00038F52091B10130E021503109EF2DF0E0DC
:100DE000C217D30761F0C80164E170E00E947A1570
:100DF000DC01AE0FBF1FAF59BE4F2C9101C020E2E6
:100E0000CE0164E170E00E947A15E80FF91FEF59F6
:100E1000FE4F2083622F84EB91E01BD6F394D5CF55
:100E2000CE2DC3CF40E081E0E3DC10925D01DF9185
:100E3000CF911F910F91FF90EF900895CF93C82FFE
:100E40008A3011F08D3081F480915E018D3011F483
:100E5000CA3091F180E2F2DF809160018111FACF16
:100E6000C0935E01CF910895883059F441E060E06D
:100E70008FEFBEDC80E2E2DF41E060E08FEFB8DCC4
:100E80001BC080E06EDF2091600180915F0190E0E7
:100E900064E170E00E947A15FC01E20FF11DEF5948
:100EA000FE4FC0836C2F84EB91E0D3D541E060E02E
:100EB00081E09EDC82E055DF809156018470CF9105
:100EC000FFCCCF93DF938AE492E00E948C13EC0175
:100ED00085ED91E00E9418118C179D0734F48AE487
:100EE00092E0DF91CF910C948C1385ED91E0DF912E
:100EF000CF910C941811CF936FEF70E088EC91E0D4
:100F0000ADD5C82F882381F0DCDF892B81F48FE9F0
:100F10009FE00197F1F700C000008FEF8C0FCC230A
:100F200009F44DC0C82FF0CFCCDF892BE9F38AE458
:100F300092E00E948C13892B31F08AE492E00E94A7
:100F4000C513C82F0EC085ED91E00E941811892BA2
:100F500039F085ED91E00E943611C82F81E002C082
:100F6000C0E080E09091560190FF2BC02C2F30E024
:100F7000C03210F490E201C09C2F882319F044E2A3
:100F800051E002C049E251E03F932F933F932F93EA
:100F90001F929F935F934F932DEB30E03F932F93DE
:100FA0002AE432E03F932F930E9476128DB79EB7CA
:100FB0000C960FB6F8949EBF0FBE8DBF02C080E0A6
:100FC00001C08C2FCF910895BF92CF92DF92EF9204
:100FD000FF920F931F93CF93DF93CDB7DEB7289780
:100FE0000FB6F894DEBF0FBECDBFB82E062F6E0130
:100FF00089E0C80ED11CFE0131967F017CDFF7012C
:1010000081937F01EC15FD05C9F7043040F0AE0176
:101010004F5F5F4F6B2D84EB91E0E4D420C0F7E08D
:10102000FB15E8F010E026E0000F111F2A95E1F70C
:1010300013958B2D90E033E0880F991F3A95E1F7D7
:10104000080F191FCE0101967C01F70161917F0104
:10105000C80182DC0F5F1F4FEC14FD04B1F7289626
:101060000FB6F894DEBF0FBECDBFDF91CF911F91B9
:101070000F91FF90EF90DF90CF90BF900895CF92A7
:10108000DF92FF920F931F93CF93DF931F92CDB701
:10109000DEB731DF182F843509F43DC108F04EC0AA
:1010A000883409F4FBC000F5823409F4BCC048F46C
:1010B000803409F4B6C008F06DC1893309F46FC1FA
:1010C00084C2853409F4D8C040F4833409F07DC269
:1010D00012DF682F84E190E025C2863409F4B9C09C
:1010E000873409F4FBC071C28E3409F4A3C1E0F463
:1010F0008B3409F410C170F48A3409F066C284EBB1
:1011000091E00F90DF91CF911F910F91FF90DF90B1
:10111000CF9054C48C3409F4FAC08D3409F055C210
:1011200041E060E081E0EAC0833508F002C181352A
:1011300008F0B8C0803509F4A8C047C2813C09F462
:101140007CC170F5893509F48CC1A0F4863509F4A9
:1011500094C108F47FC1873509F49CC1883509F032
:1011600034C20F90DF91CF911F910F91FF90DF90CC
:10117000CF9075CB8A3938F4883908F074C081393A
:1011800009F483C022C2803C09F01FC2B4DE0F9074
:10119000DF91CF911F910F91FF90DF90CF90DBCA2D
:1011A000843D09F4C8C198F4803D09F492C120F44B
:1011B000833C09F47CC109C2813D09F4A5C1833D8A
:1011C00009F003C298DE682F87E090E0ABC18C3D48
:1011D00009F4C0C120F4853D09F47BC1F6C18D3D01
:1011E00009F4C7C18E3D09F0F0C185DEF82E24E078
:1011F00031E03F932F932AE432E03F932F930E94F4
:1012000076126F2D8F2D35DA0F2D10E0000F111F84
:10121000000F111F0F900F900F900F90C12CD12C29
:10122000AFC110E092C067DE87FF03C08F7790E008
:1012300005C090E06CE370E00E947A1590935C0129
:1012400080935B0140E050E0BA0187E591E0F8D976
:1012500013C080E00F90DF91CF911F910F91FF900D
:10126000DF90CF90A9CA47DE80930501183921F499
:10127000682F83E090E070DB0F90DF91CF911F919A
:101280000F91FF90DF90CF906BC835DE8093040103
:10129000113991F7682F82E090E0EDCF40E060E0F7
:1012A00080E02CC067E070E088EC91E0D7D3812724
:1012B00080FF8BC167E070E088EC91E0CFD341E024
:1012C000482767E070E088EC91E00F90DF91CF91C4
:1012D0001F910F91FF90DF90CF90C3C30CDE9091D0
:1012E000B201182F981708F4192F05DE9091B1015B
:1012F000981708F4892F40E0682F812F0F90DF9115
:10130000CF911F910F91FF90DF90CF9071CA41E074
:1013100060E08FEFF3CF84EB91E04AD384EB91E070
:101320000F90DF91CF911F910F91FF90DF90CF90A1
:101330004CC384EB91E00F90DF91CF911F910F91FF
:10134000FF90DF90CF9047C31F5F8091B1011817C6
:1013500008F03BC100E0C12ED12C4091B20104172E
:1013600098F7202F30E0C60164E170E00E947A1502
:10137000FC01E20FF31FEF59FE4F642F70E0C6012E
:101380000E947A1580559F4F6081820F931FE4DA87
:101390000F5FE3CFB0DD682F83E190E0C3C0ABDD2A
:1013A000893261F198F48031D9F138F48830E9F567
:1013B00060E072EC81E090E025C0893161F1823219
:1013C000A1F560E870E780E090E01CC0833589F00B
:1013D00038F4833351F560E07BE480E090E012C0A4
:1013E000873619F18F3C09F560EC72E180E090E0FE
:1013F00009C060EB74E080E090E004C060E679E052
:1014000080E090E00F90DF91CF911F910F91FF90BE
:10141000DF90CF90C3CA60E076E980E090E0F2CF41
:1014200060E071EE80E090E0EDCF60E875E280E092
:1014300090E0E8CF60DD6FEF04C05DDD89835BDDA8
:1014400069810F90DF91CF911F910F91FF90DF90F5
:10145000CF90BACD50DD80930901682F8BE090E0EA
:101460007BDA31DA8093B3010F90DF91CF911F9136
:101470000F91FF90DF90CF904BCA3DDD81508430BB
:1014800008F0A3C0E82FF0E0E65FFE4FE081F0E057
:1014900063D39BC030DD8150843008F096C0E82FC4
:1014A000F0E0E65FFE4FE081F0E050D38EC023DD38
:1014B0001FEF180F20DD143008F087C0682F812F30
:1014C0000F90DF91CF911F910F91FF90DF90CF9000
:1014D000B6CA11DD809308010EDD809307010BDD94
:1014E00080930601103D09F0C7CE6091080184E0A9
:1014F00090E032DA6091070185E090E02DDA6091AA
:10150000060186E090E0B7CEF6DC182FF4DC682FF9
:10151000812F0F90DF91CF911F910F91FF90DF905E
:10152000CF907BCA0F90DF91CF911F910F91FF90C9
:10153000DF90CF9011CADFDC682F80E190E00CDAF9
:10154000DADC682F81E190E007DAD5DC682F82E1F0
:1015500090E091CED0DC8093560186FF36C00F908C
:10156000DF91CF911F910F91FF90DF90CF900C945E
:10157000A502C1DC182FBFDC682F812F0F901DC082
:10158000BADC682FC601800F911FE6D98FEFC81A09
:10159000D80AE4E0CE16D10499F723EF30E03F9368
:1015A0002F932AE432E03F932F93A0D76F2D8F2DF6
:1015B0000F900F900F900F900F90DF91CF911F9190
:1015C0000F91FF90DF90CF9054C80F90DF91CF9193
:1015D0001F910F91FF90DF90CF90089572DC892BBF
:1015E00031F089DC8E3F11F029DC01C048DD6BD978
:1015F0009091B301891749F08093B30189D98FE3A2
:101600009CE90197F1F700C0000080915B01909187
:101610005C01892B81F10FB6F8948091CA019091F9
:10162000CB01A091CC01B091CD010FBE40915701EB
:10163000509158016091590170915A01841B950B8A
:10164000A60BB70B883E9340A105B105A0F040E082
:1016500050E0BA0187E591E00E94200380915B0190
:1016600090915C01019790935C0180935B01892BC1
:1016700011F480E0A1C80895FC01858190E0FC018F
:101680006BD224E02150F1F7FC0160D224E021501C
:10169000F1F7FC0161D280E991E00197F1F708953B
:1016A000CF92DF92EF92FF920F931F93CF93DF932E
:1016B0007C01C0E0D0E0C62ED12C87010C0F1D1F8D
:1016C000D80116968C91FBD1D8011696EC91F0E0DA
:1016D000C6010C2E02C0959587950A94E2F7817099
:1016E000082E31D22196C430D10539F7C701DF91D8
:1016F000CF911F910F91FF90EF90DF90CF90BCCFD3
:10170000CF92DF92EF92FF920F931F93CF93DF93CD
:101710007C01C0E0D0E0C62ED12C87010C0F1D1F2C
:10172000D80116968C91CBD1D8011696EC91F0E0A9
:10173000C6010C2E02C0959587950A94E2F7817038
:10174000082E01D22196C830D10539F7C701DF91A3
:10175000CF911F910F91FF90EF90DF90CF908CCFA2
:101760001F93CF93DF93EC01162FEB81F0E0042E53
:10177000EAD1EC81EF3F11F0F0E0EED18E85612FE0
:1017800084FF05C0CE01DF91CF911F91B9CF70E0EA
:1017900084E0759567958A95E1F7CE0181DF612F29
:1017A000CE01DF91CF911F917BCF40E0D9CF61E097
:1017B000FCDF80E49FE10197F1F70895CF93DF9379
:1017C000CDB7DEB728970FB6F894DEBF0FBECDBFFA
:1017D00028E0E6E1F1E0DE01119601900D922A95F4
:1017E000E1F7FC012289421710F04FEF420FE42F7E
:1017F000F0E0EE0FFF1F21E030E02C0F3D1FE20F65
:10180000F31F2081260F2068622F28960FB6F894C8
:10181000DEBF0FBECDBFDF91CF91C7CFFC01678583
:10182000262F246027876C60C0CFCF93DF93EC0115
:10183000423018F08E8588608E874A8B1B8A22235F
:1018400029F0413019F48E8584608E8780E49DE014
:101850000197F1F7EB81F0E07FD1ED81F0E07CD1F1
:10186000EC81EF3F11F0F0E077D16E8564FD19C097
:1018700063E0CE0115DF80E596E40197F1F763E0C0
:10188000CE010EDF80E596E40197F1F763E0CE012B
:1018900007DF88E592E00197F1F762E0CE0100DF13
:1018A00013C06062CE0181DF80E596E40197F1F715
:1018B0006E856062CE0179DF88E592E00197F1F7ED
:1018C0006E856062CE0171DF6E856062CE016DDF74
:1018D00084E08F87CE01A2DFCE0169DF82E0888BB2
:1018E00066E0CE01DF91CF9160CF6F927F928F92B1
:1018F000AF92CF92EF920F931F93CF93DF93CDB719
:10190000DEB73C01162F842F5D854E853F85988973
:10191000F301838324830583E682C782A0868186C0
:101920005287438734879587CAD0F30184818F3FDC
:1019300009F0C5D0F3018581C2D0112319F0F3015C
:10194000168603C080E1F301868720E041E060E174
:10195000C301DF91CF911F910F91EF90CF90AF9086
:101960008F907F906F9061CF8F92AF92CF92EF92D6
:101970000F93DC0112961C921297E1E3F1E0ED93D4
:10198000FC931F921F921F921F928A2CAC2CCE2C7C
:10199000E02E022F242F462F61E0A7DF0F900F903B
:1019A0000F900F900F91EF90CF90AF908F90089580
:1019B000FC0167856D7F67876860F7CEFC016785EE
:1019C000262F226027876A60F0CEFC0167856E7F34
:1019D00067876860EACEFC016785262F216027872C
:1019E0006960E3CECF92DF92EF92FF920F931F9345
:1019F000CF93DF9300D0CDB7DEB78C016770660F51
:101A0000660F660F606449835A83CFDE4981C42E16
:101A10005A81D52EE12CF12CD6016D916D01D801A2
:101A2000ED91FC910190F081E02DC8010995BFEF87
:101A3000EB1AFB0AE8E0EE16F10471F70F900F9035
:101A4000DF91CF911F910F91FF90EF90DF90CF909A
:101A5000089541E085DE81E090E00895CB010C948B
:101A6000A916CB01642F0C94B1161DBA1092680010
:101A70001CBC10BE1FBA10926E0010926F00109224
:101A8000C90014B817B81AB815B818B81BB8089513
:101A9000F894E1E6F0E080E88083108283E084BD82
:101AA00085BDEEE6F0E080818160808381E08093F7
:101AB000800082E080938100B8D1789408958531C8
:101AC00070F4EDE4F1E0880FE80FF11D9591E491D9
:101AD000F0E02FB7F8948181892B81832FBF08957F
:101AE0008531B0F4EDE4F1E0880FE80FF11D959138
:101AF000E491F0E02FB7F894818190958923818358
:101B000082818923828380910000809300002FBF0F
:101B100008958531B8F4EDE4F1E0880FE80FF11D88
:101B20009591E491F0E02FB7F8943181892F809559
:101B3000832381838281892B82838091000080931B
:101B400000002FBF0895002039F000C0E53150F4A7
:101B5000EE0FED54F24F0994E53120F4EE0FE3520D
:101B6000F24F09940895589A52C0599A08955A9A72
:101B700008955B9A08955C9A08955D9A08955E9A17
:101B800008955F9A0895289A0895299A08952A9A9F
:101B900008952B9A08952C9A08952D9A08952E9AB7
:101BA00008952F9A44C0479A0895469A34C0459A9A
:101BB00038C0449A0895429A0895589828C0599870
:101BC00008955A9808955B9808955C9808955D98D3
:101BD00008955E9808955F98089528980895299823
:101BE00008952A9808952B9808952C9808952D9873
:101BF00008952E9808952F981AC0479808954698EA
:101C00000AC045980EC04498089542980895E4B5D6
:101C1000EF7DE4BD0895E0918000EF77E0938000D0
:101C20000895E0918000EF7DE09380000895E091B9
:101C30008000E77FE09380000895E53130F4EE0FF7
:101C4000EE0FFF27E75DF14F0994EE270895E1E0DD
:101C50000895E9B1E170D9F70895E9B1E270B9F7F3
:101C60000895E9B1E47099F70895E9B1E87079F75A
:101C70000895E9B1E07159F70895E9B1E07239F7D3
:101C80000895E9B1E07419F70895E9B1E078F9F63B
:101C90000895E3B1E170D9F60895E3B1E270B9F6C1
:101CA0000895E3B1E47099F60895E3B1E87079F628
:101CB0000895E3B1E07159F60895E3B1E07239F6A1
:101CC0000895E3B1E07419F60895E3B1E078A9F45A
:101CD0000895E6B1E07889F40895E6B1E07469F416
:101CE0000895E6B1E07249F40895E6B1E07129F48F
:101CF0000895E6B1E47009F40895E1E00895F894D8
:101D000080E29EE40197F1F781E08093E00080E2B9
:101D10008093D80080E69AEE0197F1F7A6DE0C9446
:101D2000001FFFCFF894A1DE80E69AEE0197F1F74D
:101D30000C940000FFCF8F938FB78F938091C901D0
:101D40008D5F8D37D0F48093C9018091CA018F5F78
:101D50008093CA01D8F08091CB018F4F8093CB0143
:101D6000A8F08091CC018F4F8093CC0178F08091C6
:101D7000CD018F4F8093CD0109C08D578093C9014C
:101D80008091CA018E5F8093CA0128F78091CE01AD
:101D90008C5F8093CE0158F08091CF018F4F80935C
:101DA000CF0128F08091D0018F4F8093D0018F9187
:101DB0008FBF8F9118950F931F938B019C0116D0A5
:101DC000AB01011511052105310569F00FD0641B28
:101DD000750B683E7340A8F30150110921093109C0
:101DE00048515C4FEECF1F910F9108950FB6F894B4
:101DF00066B515B27091CE018091CF019091D0015E
:101E00000FBE10FE05C06F3F19F07C5F8F4F9F4FD4
:101E100011240024660F001C660F001C7029089511
:101E20008091E80080FFFCCF08958091D80087FF63
:101E300002C085FF18C080EA8093D80086E089BD83
:101E400009B400FEFDCF80E88093D8001092E00036
:101E50001092560210925502109254021092E10014
:101E60008DE08093E20008951F920F920FB60F92BB
:101E700011242F933F934F935F936F937F938F938F
:101E80009F93AF93BF93EF93FF938091E1001092E4
:101E9000E10083FF11C01092E90091E09093EB0004
:101EA0001092EC0092E29093ED0098E09093F00095
:101EB000109256021092540282FF1DC09091560259
:101EC0009923C9F09091D401992359F0915090939E
:101ED000D401911106C094E09093E9009AE39093A5
:101EE000E8009091D301992331F091509093D30160
:101EF000911101C004DF80FF0CC090E19093E200DB
:101F00001092560291E09093550290EA9093D80077
:101F100019BC90915502992379F084FF0DC086E099
:101F200089BD09B400FEFDCF80E88093D8008DE024
:101F30008093E20010925502FF91EF91BF91AF9113
:101F40009F918F917F916F915F914F913F912F91D1
:101F50000F900FBE0F901F9018951F920F920FB603
:101F60000F921124EF92FF920F931F932F933F93A1
:101F70004F935F936F937F938F939F93AF93BF9391
:101F8000EF93FF93CF93DF931F92CDB7DEB71092FD
:101F9000E9008091E80083FF30C13091F100209189
:101FA000F100E090F100F090F1000091F10010914B
:101FB000F1008091F1009091F10042EF4093E80030
:101FC000263009F03FC046E0E7E7F1E02591359182
:101FD0002E153F0511F0359615C025913591201726
:101FE000310711F033960EC02591359144918F3F02
:101FF000910519F010F08FEF90E0841708F4482F46
:102000005EEF08C0415011F7F8C0481B5093E8003C
:102010004423A9F08091E800982F9570D9F382FDB0
:10202000EFC0842F413208F080E2982F992369F3A2
:10203000F90125912093F1009F019150F7CF803253
:1020400049F3DEC0253049F48EEF8093E800E8DEE6
:102050008E2D80688093E300D3C0293001F53111C3
:10206000A9C0E0925602109254021092D4018EEF51
:102070008093E80081E0EAE3F2E08093E900959143
:102080009093EB00992331F095919093EC0095910A
:102090009093ED008F5F853081F78EE1A9C02830E5
:1020A00049F4303809F086C0BBDE80915602809337
:1020B000F1007CC0213291F4313A09F07BC0B0DEEE
:1020C000EEE0F1E0CF01019620812093F10021E0C4
:1020D0008531920709F46AC0FC01F4CF203209F07F
:1020E00041C0313209F066C08091E80082FFFCCF28
:1020F000EEE0F1E0CF0101962091F1002083E1E0D4
:1021000085319E0711F0FC01F5CF8BEF8093E8003D
:102110008EEF8093E80080910E0190910F01A091C5
:102120001001B091110186389105A105B10521F486
:102130008FE08093D30164C086399105A105B10574
:1021400009F05EC084E08093E9009FEF8091EE008B
:10215000837039F09093E8008091E80082FDFCCF15
:10216000F5CFE0DD223229F4313221F5E09254023C
:1021700005C0233229F4313209F03FC051DE16C0C8
:10218000211118C039834CDE3981323851F4009363
:10219000E9008091EB0085FB882780F91092E90027
:1021A00001C080E08093F1001092F1008EEF8093E7
:1021B000E80026C0822F8D7F8130F9F43230E9F4B7
:1021C000EF28D9F40F778FEF800F8630B0F48EEFC1
:1021D0008093E8000093E900233079F089E180934F
:1021E000EB0081E090E0002E01C0880F0A94EAF72E
:1021F0008093EA001092EA0003C081E28093EB0032
:102200000F90DF91CF91FF91EF91BF91AF919F918F
:102210008F917F916F915F914F913F912F911F917E
:102220000F91FF90EF900F900FBE0F901F90189599
:102230005091090240910802852F90E0242F30E050
:10224000541710F4805C9F4F821B930B089580916C
:102250000902E09108028E1731F0F0E0E65FFD4FD1
:10226000808190E008958FEF9FEF0895909109028B
:1022700080910802981779F0909108029F5F90343E
:1022800008F090E0E92FF0E0E65FFD4F8081909349
:10229000080290E008958FEF9FEF08958091DD018F
:1022A0008111FCCF08952091C90023FD06C021E0D3
:1022B000FC01228380E090E00895809115018F3F1A
:1022C00021F08091DD018823D1F08091DF018F5FC3
:1022D000883208F080E09091DE019817E1F3E82F52
:1022E000F0E0E052FE4F608391E09093DD01809337
:1022F000DF0188EF8093C90081E090E00895E091CC
:102300001501F0E023DCE1CF0F931F93CF93DF9310
:102310001F92CDB7DEB78B01409315014F3F39F0C7
:10232000842F4983CCDB4981E42FF0E015DC00FFEA
:1023300009C0013080E1180728F482E08093C800CA
:10234000C80105C01092C800C801969587950197ED
:102350009093CD008093CC008091C90083FD10C084
:1023600010920902109208021092DF011092DE0111
:102370001092DD0186E08093CA0088ED8093C90049
:102380000F90DF91CF911F910F9108951F920F929F
:102390000FB60F9211242F938F939F93EF93FF9378
:1023A0009091CE00809109028F5F803408F080E028
:1023B00020910802821739F0E82FF0E0E65FFD4F28
:1023C000908380930902FF91EF919F918F912F91BC
:1023D0000F900FBE0F901F9018951F920F920FB67F
:1023E0000F9211248F939F93EF93FF939091DF01AE
:1023F0008091DE01981304C088ED8093C9000FC05E
:102400008091DE018F5F883208F080E0E82FF0E0F5
:10241000E052FE4F90819093CE008093DE01FF91B9
:10242000EF919F918F910F900FBE0F901F90189575
:102430001F920F920FB60F9211248F93EF93FF9379
:102440001092DD01809115018F3F21F0E09115017F
:10245000F0E082DBFF91EF918F910F900FBE0F9014
:102460001F9018951092D70188EE93E0A0E0B0E09D
:102470008093D8019093D901A093DA01B093DB0146
:102480001092DC0189E391E09093D6018093D5010D
:102490000895FEDA0E949C05A1D8FECFCF92DF926C
:1024A000EF92FF920F931F93CF93DF936C017A010A
:1024B000EB01E60EF71E00E010E0CE15DF0561F03F
:1024C0006991D601ED91FC910190F081E02DC6015A
:1024D0000995080F191FF1CFC801DF91CF911F9106
:1024E0000F91FF90EF90DF90CF9008954F925F9201
:1024F0006F927F928F929F92AF92BF92CF92DF9214
:10250000EF92FF920F931F93CF93DF93CDB7DEB778
:102510002B970FB6F894DEBF0FBECDBFAE8CBF8C2D
:10252000E8A1F9A17E0182E2E80EF11C512C4AE0FB
:10253000442E8E010F5F1F4F6F019FEFC91AD90AFA
:10254000E491EE2399F1D801F42D1D92FA95E9F763
:10255000E53271F430E2732E612C812C912CBFEFA7
:10256000CB1ADB0AF6013197E491E11138C002C0C1
:10257000E983612CF80101900020E9F7AF01415097
:102580005109401B510B540ED501ED91FC91028075
:10259000F381E02DB801C50109958FEF860DB1E0FB
:1025A000B61510F4682EE6CFF601C6CF852D90E063
:1025B0002B960FB6F894DEBF0FBECDBFDF91CF9143
:1025C0001F910F91FF90EF90DF90CF90BF90AF9051
:1025D0009F908F907F906F905F904F900895E03321
:1025E00029F4C70120E3722E7C01B9CFE13308F052
:1025F00075C0E33229F4D7016C90C7010296F4CF7D
:10260000E53211F4E983B6CFE062C7010296E33701
:1026100031F0E837B9F1E33681F12AE034C0F7014F
:102620007C0160817181662061F0FB0101900020D6
:10263000E9F73197E61BF70B862D90E0E817F907CD
:1026400038F4FB0101900020E9F731976E2E661AED
:10265000560CD501ED91FC91712C0280F381E02D97
:10266000A301C5010995A4014619570914161506B9
:102670000CF07FCF60E270E02EC0F7017C0180811A
:10268000898378CF20E1F7017C01422F50E0B80127
:10269000808191812B8730D32B85203111F4C801A3
:1026A00021D3F80101900020E9F73197E01BF10BED
:1026B0008E1A9F0A181419040CF05BCFAF014F5FFC
:1026C0005F4FB801C801880D991DF4D2672D772797
:1026D00067FD7095A401C801FED24BCFEA3308F024
:1026E00093CFEF708E2E912CC7017ECFCF93DF93C7
:1026F0001F92CDB7DEB76983DC01ED91FC910280BA
:10270000F381E02D41E050E0BE016F5F7F4F0995FE
:102710000F90DF91CF9108953FB7F8942091560222
:10272000211102C040E010C023E02093E900409155
:10273000F200411109C02091E80022FFF3CF25FDEE
:10274000F1CF2BE62093E8003FBFFC0120853185C7
:1027500037FD03C04F3F09F04F5F842F90E008958D
:10276000CF93DF93EC018885998597FF09C0E881B5
:10277000F9810680F781E02DCE0109959987888738
:1027800088859985DF91CF910895FC012085318559
:1027900037FD07C04FEF5FEF51874087C901992789
:1027A00008959FB7F89480915602882369F083E0DA
:1027B0008093E9002BE68091E80085FD09C082FF47
:1027C00003C02093E800F7CF9FBF8FEF9FEF0895DE
:1027D0008091F1002091E80025FD03C02BE62093B5
:1027E000E8009FBF90E00895CF92DF92EF92FF92B2
:1027F0000F931F93CF93DF939C0180915602811119
:1028000004C081E0E9018A8311C00FB7F89484E025
:102810008093E9008091D201882369F08091E800DB
:1028200085FD07C00FBF81E0F901828380E090E061
:1028300096C01092D20180E090E0E4E0FE2EF0E23B
:10284000EF2EA1EFB0E0CAE3DC2ED3E0CD2E411590
:10285000510509F483C0E091E400E15FF091E800E4
:10286000F5FD18C00FBFF091E400FE1306C041E073
:102870004093D201E9014A8372C0F0915602F111EE
:1028800004C041E0F90142836AC00FB7F894F092A6
:10289000E900E4CFE091F2001E2D1E1BE12FF0E0D5
:1028A0004E175F0708F4142FE12FF0E04E1B5F0B6B
:1028B0008E0F9F1FEB01E0E2E11BE03228F4EE0FE8
:1028C000FF27EB59FB4E099440C019911C931991B5
:1028D0001C9319911C9319911C9319911C93199194
:1028E0001C9319911C9319911C9319911C93199184
:1028F0001C9319911C9319911C9319911C93199174
:102900001C9319911C9319911C9319911C93199163
:102910001C9319911C9319911C9319911C93199153
:102920001C9319911C9319911C9319911C93199143
:102930001C9319911C9319911C9319911C93199133
:102940001C9319911C9319911C93BE01E091E8000E
:10295000E5FFD092E800C092D40179CF0FBFDF919C
:10296000CF911F910F91FF90EF90DF90CF9008953E
:102970002FEF3FEFFC013187208757DA0FB6F8942D
:102980008091CA019091CB01A091CC01B091CD0171
:102990000FBE9C0180915602882329F068EC70E0FC
:1029A00080E090E008CA80915502882309F10FB6B3
:1029B000F8948091CA019091CB01A091CC01B09183
:1029C000CD010FBEAC0180915502882389F00FB66E
:1029D000F8948091CA019091CB01A091CC01B09163
:1029E000CD010FBE841B950B8B3F910560F311C089
:1029F0000FB6F8948091CA019091CB01A091CC01BF
:102A0000B091CD010FBE821B930B853C994008F419
:102A1000C1CF08959FB7F89480915602882321F082
:102A20008091D401811102C09FBF089584E08093FA
:102A3000E9008AE38093E8001092D401F5CFEACF51
:102A4000EAE4F2E08AE0DF011D928A95E9F788EE78
:102A500093E0A0E0B0E080934D0290934E02A093EB
:102A60004F02B093500289E491E0918380830895EE
:102A70004F925F926F927F92AF92BF92CF92DF920E
:102A8000EF92FF920F931F93CF93DF93CDB7DEB7F3
:102A900029013A0129893A894B895C8964197509A8
:102AA000860997092A193B094C095D0972D0A32FA1
:102AB000F42FE52FE418F50806091709622F7A2F7D
:102AC0008F2F9E2FA801970148D02A0D3B1D4C1D2A
:102AD0005D1DCA01B901DF91CF911F910F91FF9048
:102AE000EF90DF90CF90BF90AF907F906F905F900E
:102AF0004F9008950024552704C0080E591F880FD1
:102B0000991F009729F076956795B8F37105B9F785
:102B1000802D952F0895A1E21A2EAA1BBB1BFD0143
:102B20000DC0AA1FBB1FEE1FFF1FA217B307E407AC
:102B3000F50720F0A21BB30BE40BF50B661F771F04
:102B4000881F991F1A9469F76095709580959095E4
:102B50009B01AC01BD01CF010895052E97FB16F432
:102B600000940FD057FD05D0D6DF07FC02D046F405
:102B700008C050954095309521953F4F4F4F5F4F7E
:102B8000089590958095709561957F4F8F4F9F4FD9
:102B9000089568940013E894A0E0B0E0E1EDF5E159
:102BA0001DC0EFEFE7F959016A015E23550FEE08EA
:102BB000FE2C87019B01AC019E23990F660B762F9B
:102BC000CB0141D0CDB7DEB7EAE024C02F923F92CF
:102BD0004F925F926F927F928F929F92AF92BF922D
:102BE000CF92DF92EF92FF920F931F93CF93DF93D9
:102BF000CDB7DEB7CA1BDB0B0FB6F894DEBF0FBE36
:102C0000CDBF09942A88398848885F846E847D8482
:102C10008C849B84AA84B984C884DF80EE80FD8084
:102C20000C811B81AA81B981CE0FD11D0FB6F894FA
:102C3000DEBF0FBECDBFED010895EE0FFF1F059063
:102C4000F491E02D0994DF93CF939F92A0E49A2E04
:102C50000024D001E001F00116950795F794E79460
:102C6000D794C794B794A79448F41068A20FB31FE1
:102C7000C41FD51FE61FF71F081E191E220F331F82
:102C8000441F551F661F771F881F991F9A9421F7AD
:102C90009D01AE01BF01C00111249F90CF91DF9132
:102CA0000895FB01DC0102C001900D92415050409B
:102CB000D8F708956817790768F4FB01DC01E40F81
:102CC000F51FA40FB51F02C002900E924150504054
:102CD000D8F70895E6CFDC0101C06D934150504014
:102CE000E0F70895DC016C9161566A3108F0605E8E
:102CF0006F5B6D93C1F708954532510518F442306A
:102D000008F004C0FB011082CB010895BB274A30B4
:102D100031F4992322F4BDE2909581959F4F01C033
:102D2000BB27FB015527AA27880F991FAA1FA417A5
:102D300010F0A41B83955051B9F7A05DAA3308F099
:102D4000A95DA193009779F7B111B1931192CB01CD
:102D500016C0F999FECF92BD81BDF89A992780B52A
:102D60000895262FF999FECF1FBA92BD81BD20BDCF
:102D70000FB6F894FA9AF99A0FBE01960895DC01FD
:102D8000FC01672F71917723E1F7329704C07C91A2
:102D90006D9370836291AE17BF07C8F30895F894DE
:022DA000FFCF63
:102DA20001000000C0FFFFFFFFFF0814131000E145
:102DB2000000000008FF00004000140054002B3106
:102DC200374731005541525400555342000000002C
:102DD20000290D4E120000000053114E1218113638
:102DE2001127114E11000000007613F4138C13C545
:062DF20013B0131F1500D1
:00000001FF
